{
  "contractName": "CumulativePoll",
  "abi": [
    {
      "inputs": [
        {
          "internalType": "address",
          "name": "_chairman",
          "type": "address"
        },
        {
          "internalType": "string",
          "name": "_title",
          "type": "string"
        },
        {
          "internalType": "string",
          "name": "_description",
          "type": "string"
        },
        {
          "internalType": "bytes32[]",
          "name": "_choices",
          "type": "bytes32[]"
        },
        {
          "internalType": "address[]",
          "name": "_voters",
          "type": "address[]"
        },
        {
          "internalType": "uint256[]",
          "name": "_allowedVotes",
          "type": "uint256[]"
        },
        {
          "internalType": "uint256",
          "name": "_quorum",
          "type": "uint256"
        },
        {
          "internalType": "uint256",
          "name": "_endDate",
          "type": "uint256"
        },
        {
          "internalType": "bool",
          "name": "_allowVoteDelegation",
          "type": "bool"
        }
      ],
      "stateMutability": "nonpayable",
      "type": "constructor"
    },
    {
      "anonymous": false,
      "inputs": [
        {
          "indexed": true,
          "internalType": "address",
          "name": "who",
          "type": "address"
        },
        {
          "indexed": true,
          "internalType": "uint256",
          "name": "chosen",
          "type": "uint256"
        },
        {
          "indexed": false,
          "internalType": "int256",
          "name": "votesAmount",
          "type": "int256"
        }
      ],
      "name": "Voted",
      "type": "event"
    },
    {
      "inputs": [],
      "name": "allowVoteDelegation",
      "outputs": [
        {
          "internalType": "bool",
          "name": "",
          "type": "bool"
        }
      ],
      "stateMutability": "view",
      "type": "function",
      "constant": true
    },
    {
      "inputs": [
        {
          "internalType": "address",
          "name": "",
          "type": "address"
        }
      ],
      "name": "allowedVotes",
      "outputs": [
        {
          "internalType": "uint256",
          "name": "",
          "type": "uint256"
        }
      ],
      "stateMutability": "view",
      "type": "function",
      "constant": true
    },
    {
      "inputs": [],
      "name": "amountOfChoices",
      "outputs": [
        {
          "internalType": "uint256",
          "name": "",
          "type": "uint256"
        }
      ],
      "stateMutability": "view",
      "type": "function",
      "constant": true
    },
    {
      "inputs": [],
      "name": "amountOfVoters",
      "outputs": [
        {
          "internalType": "uint256",
          "name": "",
          "type": "uint256"
        }
      ],
      "stateMutability": "view",
      "type": "function",
      "constant": true
    },
    {
      "inputs": [],
      "name": "chairman",
      "outputs": [
        {
          "internalType": "address",
          "name": "",
          "type": "address"
        }
      ],
      "stateMutability": "view",
      "type": "function",
      "constant": true
    },
    {
      "inputs": [],
      "name": "checkWinner",
      "outputs": [
        {
          "internalType": "uint256",
          "name": "winnerIndex",
          "type": "uint256"
        }
      ],
      "stateMutability": "view",
      "type": "function",
      "constant": true
    },
    {
      "inputs": [
        {
          "internalType": "uint256",
          "name": "",
          "type": "uint256"
        }
      ],
      "name": "choices",
      "outputs": [
        {
          "internalType": "bytes32",
          "name": "name",
          "type": "bytes32"
        },
        {
          "internalType": "int256",
          "name": "voteCount",
          "type": "int256"
        }
      ],
      "stateMutability": "view",
      "type": "function",
      "constant": true
    },
    {
      "inputs": [
        {
          "internalType": "address",
          "name": "to",
          "type": "address"
        },
        {
          "internalType": "uint256",
          "name": "amount",
          "type": "uint256"
        }
      ],
      "name": "delegateVote",
      "outputs": [
        {
          "internalType": "bool",
          "name": "",
          "type": "bool"
        }
      ],
      "stateMutability": "nonpayable",
      "type": "function"
    },
    {
      "inputs": [],
      "name": "description",
      "outputs": [
        {
          "internalType": "string",
          "name": "",
          "type": "string"
        }
      ],
      "stateMutability": "view",
      "type": "function",
      "constant": true
    },
    {
      "inputs": [],
      "name": "endDate",
      "outputs": [
        {
          "internalType": "uint256",
          "name": "",
          "type": "uint256"
        }
      ],
      "stateMutability": "view",
      "type": "function",
      "constant": true
    },
    {
      "inputs": [
        {
          "internalType": "address",
          "name": "",
          "type": "address"
        }
      ],
      "name": "hasVoted",
      "outputs": [
        {
          "internalType": "bool",
          "name": "",
          "type": "bool"
        }
      ],
      "stateMutability": "view",
      "type": "function",
      "constant": true
    },
    {
      "inputs": [],
      "name": "isFinished",
      "outputs": [
        {
          "internalType": "bool",
          "name": "finished",
          "type": "bool"
        },
        {
          "internalType": "bool",
          "name": "quorumReached",
          "type": "bool"
        }
      ],
      "stateMutability": "view",
      "type": "function",
      "constant": true
    },
    {
      "inputs": [],
      "name": "pollType",
      "outputs": [
        {
          "internalType": "string",
          "name": "",
          "type": "string"
        }
      ],
      "stateMutability": "view",
      "type": "function",
      "constant": true
    },
    {
      "inputs": [],
      "name": "quorum",
      "outputs": [
        {
          "internalType": "uint256",
          "name": "",
          "type": "uint256"
        }
      ],
      "stateMutability": "view",
      "type": "function",
      "constant": true
    },
    {
      "inputs": [],
      "name": "title",
      "outputs": [
        {
          "internalType": "string",
          "name": "",
          "type": "string"
        }
      ],
      "stateMutability": "view",
      "type": "function",
      "constant": true
    },
    {
      "inputs": [
        {
          "internalType": "uint256",
          "name": "choice",
          "type": "uint256"
        },
        {
          "internalType": "int256",
          "name": "amountOfVotes",
          "type": "int256"
        }
      ],
      "name": "vote",
      "outputs": [
        {
          "internalType": "address",
          "name": "voter",
          "type": "address"
        },
        {
          "internalType": "uint256",
          "name": "choiceIndex",
          "type": "uint256"
        },
        {
          "internalType": "int256",
          "name": "voteCount",
          "type": "int256"
        }
      ],
      "stateMutability": "nonpayable",
      "type": "function"
    },
    {
      "inputs": [
        {
          "internalType": "uint256",
          "name": "",
          "type": "uint256"
        }
      ],
      "name": "voters",
      "outputs": [
        {
          "internalType": "address",
          "name": "",
          "type": "address"
        }
      ],
      "stateMutability": "view",
      "type": "function",
      "constant": true
    },
    {
      "inputs": [
        {
          "internalType": "address",
          "name": "",
          "type": "address"
        }
      ],
      "name": "votersWhitelist",
      "outputs": [
        {
          "internalType": "bool",
          "name": "",
          "type": "bool"
        }
      ],
      "stateMutability": "view",
      "type": "function",
      "constant": true
    }
  ],
  "bytecode": "0x60806040523480156200001157600080fd5b506040516200129c3803806200129c83398181016040526101208110156200003857600080fd5b8151602083018051604051929492938301929190846401000000008211156200006057600080fd5b9083019060208201858111156200007657600080fd5b82516401000000008111828201881017156200009157600080fd5b82525081516020918201929091019080838360005b83811015620000c0578181015183820152602001620000a6565b50505050905090810190601f168015620000ee5780820380516001836020036101000a031916815260200191505b50604052602001805160405193929190846401000000008211156200011257600080fd5b9083019060208201858111156200012857600080fd5b82516401000000008111828201881017156200014357600080fd5b82525081516020918201929091019080838360005b838110156200017257818101518382015260200162000158565b50505050905090810190601f168015620001a05780820380516001836020036101000a031916815260200191505b5060405260200180516040519392919084640100000000821115620001c457600080fd5b908301906020820185811115620001da57600080fd5b8251866020820283011164010000000082111715620001f857600080fd5b82525081516020918201928201910280838360005b83811015620002275781810151838201526020016200020d565b50505050905001604052602001805160405193929190846401000000008211156200025157600080fd5b9083019060208201858111156200026757600080fd5b82518660208202830111640100000000821117156200028557600080fd5b82525081516020918201928201910280838360005b83811015620002b45781810151838201526020016200029a565b5050505090500160405260200180516040519392919084640100000000821115620002de57600080fd5b908301906020820185811115620002f457600080fd5b82518660208202830111640100000000821117156200031257600080fd5b82525081516020918201928201910280838360005b838110156200034157818101518382015260200162000327565b505050509190910160409081526020830151908301516060909301519094509192508990508888888888888888428211620003c3576040805162461bcd60e51b815260206004820152601f60248201527f54686520656e6420646174652063616e6e6f7420626520696e20706173742e00604482015290519081900360640190fd5b8751620003d89060009060208b0190620005ec565b508651620003ee9060019060208a0190620005ec565b5084516200040490600990602088019062000671565b506004829055600280546001600160a01b0319166001600160a01b038b1617905560038390556005805460ff191682151517905560005b8651811015620004e55760008782815181106200045457fe5b60209081029190910181015160408051808201909152908152600091810182815260088054600180820183559190945291517ff3f7a9fe364faab93b216da50a3214154f22a0a2b415b23a84c8169e8b636ee3600290940293840155517ff3f7a9fe364faab93b216da50a3214154f22a0a2b415b23a84c8169e8b636ee4909201919091559190910190506200043b565b5060005b855181101562000593578481815181106200050057fe5b6020026020010151600a60008884815181106200051957fe5b60200260200101516001600160a01b03166001600160a01b03168152602001908152602001600020819055506001600b60008884815181106200055857fe5b6020908102919091018101516001600160a01b03168252810191909152604001600020805460ff1916911515919091179055600101620004e9565b505050505050505050506040518060400160405280600f81526020016e10dd5b5d5b185d1a5d99481c1bdb1b608a1b81525060069080519060200190620005dc929190620005ec565b505050505050505050506200071e565b828054600181600116156101000203166002900490600052602060002090601f016020900481019282601f106200062f57805160ff19168380011785556200065f565b828001600101855582156200065f579182015b828111156200065f57825182559160200191906001019062000642565b506200066d929150620006d7565b5090565b828054828255906000526020600020908101928215620006c9579160200282015b82811115620006c957825182546001600160a01b0319166001600160a01b0390911617825560209092019160019091019062000692565b506200066d929150620006f7565b620006f491905b808211156200066d5760008155600101620006de565b90565b620006f491905b808211156200066d5780546001600160a01b0319168155600101620006fe565b610b6e806200072e6000396000f3fe608060405234801561001057600080fd5b50600436106101165760003560e01c80637b352962116100a2578063c24a0f8b11610071578063c24a0f8b14610316578063ce425c801461031e578063da58c7d914610326578063f596b4f014610343578063f6fd7fde1461034b57610116565b80637b3529621461029b57806387f7b975146102be578063926f7327146102e2578063ad38867e1461030e57610116565b80634567d74c116100e95780634567d74c146101f45780634a79d50c1461021a5780634fefbc34146102225780635e44daf3146102485780637284e4161461029357610116565b806309eef43e1461011b5780631703a01814610155578063237637a81461016f5780633f2b96e6146101ec575b600080fd5b6101416004803603602081101561013157600080fd5b50356001600160a01b0316610381565b604080519115158252519081900360200190f35b61015d610396565b60408051918252519081900360200190f35b61017761039c565b6040805160208082528351818301528351919283929083019185019080838360005b838110156101b1578181015183820152602001610199565b50505050905090810190601f1680156101de5780820380516001836020036101000a031916815260200191505b509250505060405180910390f35b61014161042a565b6101416004803603602081101561020a57600080fd5b50356001600160a01b0316610433565b610177610448565b61015d6004803603602081101561023857600080fd5b50356001600160a01b03166104a3565b61026b6004803603604081101561025e57600080fd5b50803590602001356104b5565b604080516001600160a01b039094168452602084019290925282820152519081900360600190f35b6101776106a8565b6102a3610702565b60408051921515835290151560208301528051918290030190f35b6102c66107b9565b604080516001600160a01b039092168252519081900360200190f35b610141600480360360408110156102f857600080fd5b506001600160a01b0381351690602001356107c8565b61015d610993565b61015d6109da565b61015d6109e0565b6102c66004803603602081101561033c57600080fd5b50356109e6565b61015d610a0d565b6103686004803603602081101561036157600080fd5b5035610a13565b6040805192835260208301919091528051918290030190f35b60076020526000908152604090205460ff1681565b60035481565b6006805460408051602060026001851615610100026000190190941693909304601f810184900484028201840190925281815292918301828280156104225780601f106103f757610100808354040283529160200191610422565b820191906000526020600020905b81548152906001019060200180831161040557829003601f168201915b505050505081565b60055460ff1681565b600b6020526000908152604090205460ff1681565b6000805460408051602060026001851615610100026000190190941693909304601f810184900484028201840190925281815292918301828280156104225780601f106103f757610100808354040283529160200191610422565b600a6020526000908152604090205481565b6000806000806104c3610702565b5090508015610519576040805162461bcd60e51b815260206004820152601b60248201527f54686520706f6c6c2068617320616c726561647920656e6465642e0000000000604482015290519081900360640190fd5b60085486106105595760405162461bcd60e51b815260040180806020018281038252602b815260200180610ae4602b913960400191505060405180910390fd5b336000908152600a60205260409020548513156105a75760405162461bcd60e51b8152600401808060200182810382526021815260200180610aa26021913960400191505060405180910390fd5b600085136105e65760405162461bcd60e51b815260040180806020018281038252603e815260200180610a64603e913960400191505060405180910390fd5b336000908152600a602090815260408083208054899003905560079091529020805460ff19166001179055600880548691908890811061062257fe5b60009182526020918290206001600290920201018054909201909155604080518781529051889233927f1263a2295e53acd6ef8f655b8afc11fa0f2cf11925be7aa1757d741ef32a926c929081900390910190a333866008888154811061068557fe5b906000526020600020906002020160010154829250935093509350509250925092565b60018054604080516020600284861615610100026000190190941693909304601f810184900484028201840190925281815292918301828280156104225780601f106103f757610100808354040283529160200191610422565b60008080805b60095481101561076957600760006009838154811061072357fe5b60009182526020808320909101546001600160a01b0316835282019290925260400190205460ff16610756576000610759565b60015b60ff169190910190600101610708565b50801580159061077a575060095481145b1561078c5760018092509250506107b5565b6004546107a35760035460019350111590506107b5565b60045442101560035482101592509250505b9091565b6002546001600160a01b031681565b6000806107d3610702565b5090508015610829576040805162461bcd60e51b815260206004820152601b60248201527f54686520706f6c6c2068617320616c726561647920656e6465642e0000000000604482015290519081900360640190fd5b60055460ff1661086a5760405162461bcd60e51b815260040180806020018281038252602a815260200180610b0f602a913960400191505060405180910390fd5b336000908152600b602052604090205460ff166108b85760405162461bcd60e51b8152600401808060200182810382526021815260200180610ac36021913960400191505060405180910390fd5b336000908152600a60205260409020548311156109065760405162461bcd60e51b8152600401808060200182810382526021815260200180610aa26021913960400191505060405180910390fd5b6001600160a01b0384166000908152600b602052604090205460ff1661095d5760405162461bcd60e51b8152600401808060200182810382526025815260200180610a3f6025913960400191505060405180910390fd5b336000908152600a6020526040808220805486900390556001600160a01b03861682529020805484019055600191505092915050565b600080805b6008548110156109d45781600882815481106109b057fe5b90600052602060002090600202016001015413156109cc578091505b600101610998565b50905090565b60045481565b60085490565b600981815481106109f357fe5b6000918252602090912001546001600160a01b0316905081565b60095490565b60088181548110610a2057fe5b6000918252602090912060029091020180546001909101549091508256fe54686520726563697069656e74206973206e6f7420616c6c6f77656420746f20766f74652e596f752063616e6e6f742067697665206e65676174697665206e756d626572206f6620766f74657320696e20746869732074797065206f6620706f6c6c2e54686520766f7465722068617320696e73756666696369656e7420766f7465732e54686520766f746572206973206e6f7420616c6c6f77656420746f20766f74652e5468657265206973206e6f20737563682063616e6469646174652077697468207468697320696e6465782e566f74652064656c65676174696f6e2069732064697361626c656420666f72207468697320706f6c6c2ea264697066735822122058bcbeba4109c4a2b1e8921a6d4769f334053a6f67385c1d2d0624eb909389f864736f6c63430006080033",
  "immutableReferences": {},
  "source": "// SPDX-License-Identifier: MIT\r\npragma solidity >=0.4.22 <0.8.0;\r\n\r\nimport './BasePoll.sol';\r\n\r\ncontract CumulativePoll is BasePoll {\r\n  constructor(\r\n    address _chairman,\r\n    string memory _title,\r\n    string memory _description,\r\n    bytes32[] memory _choices,\r\n    address[] memory _voters,\r\n    uint256[] memory _allowedVotes,\r\n    uint256 _quorum,\r\n    uint256 _endDate,\r\n    bool _allowVoteDelegation\r\n  )\r\n    public\r\n    BasePoll(_chairman, _title, _description, _choices, _voters, _allowedVotes, _quorum, _endDate, _allowVoteDelegation)\r\n  {\r\n    pollType = 'Cumulative poll';\r\n  }\r\n}\r\n",
  "sourcePath": "/home/mrkampla/Votr/contracts/contracts/polls/CumulativePoll.sol",
  "compiler": {
    "name": "solc",
    "version": "0.6.8+commit.0bbfe453.Emscripten.clang"
  },
  "schemaVersion": "3.3.3",
  "updatedAt": "2021-02-23T14:57:17.699Z",
  "networkType": "ethereum",
  "devdoc": {
    "methods": {}
  },
  "userdoc": {
    "methods": {}
  }
}