{
  "contractName": "EvaluativePoll",
  "abi": [
    {
      "inputs": [
        {
          "internalType": "address",
          "name": "_chairman",
          "type": "address"
        },
        {
          "internalType": "string",
          "name": "_title",
          "type": "string"
        },
        {
          "internalType": "string",
          "name": "_description",
          "type": "string"
        },
        {
          "internalType": "bytes32[]",
          "name": "_choices",
          "type": "bytes32[]"
        },
        {
          "internalType": "address[]",
          "name": "_voters",
          "type": "address[]"
        },
        {
          "internalType": "uint256",
          "name": "_quorum",
          "type": "uint256"
        },
        {
          "internalType": "uint256",
          "name": "_endDate",
          "type": "uint256"
        }
      ],
      "stateMutability": "nonpayable",
      "type": "constructor"
    },
    {
      "anonymous": false,
      "inputs": [
        {
          "indexed": true,
          "internalType": "address",
          "name": "who",
          "type": "address"
        },
        {
          "indexed": true,
          "internalType": "uint256",
          "name": "chosen",
          "type": "uint256"
        },
        {
          "indexed": false,
          "internalType": "int256",
          "name": "votesAmount",
          "type": "int256"
        }
      ],
      "name": "Voted",
      "type": "event"
    },
    {
      "inputs": [],
      "name": "allowVoteDelegation",
      "outputs": [
        {
          "internalType": "bool",
          "name": "",
          "type": "bool"
        }
      ],
      "stateMutability": "view",
      "type": "function",
      "constant": true
    },
    {
      "inputs": [
        {
          "internalType": "address",
          "name": "",
          "type": "address"
        }
      ],
      "name": "allowedVotes",
      "outputs": [
        {
          "internalType": "uint256",
          "name": "",
          "type": "uint256"
        }
      ],
      "stateMutability": "view",
      "type": "function",
      "constant": true
    },
    {
      "inputs": [],
      "name": "amountOfChoices",
      "outputs": [
        {
          "internalType": "uint256",
          "name": "",
          "type": "uint256"
        }
      ],
      "stateMutability": "view",
      "type": "function",
      "constant": true
    },
    {
      "inputs": [],
      "name": "amountOfVoters",
      "outputs": [
        {
          "internalType": "uint256",
          "name": "",
          "type": "uint256"
        }
      ],
      "stateMutability": "view",
      "type": "function",
      "constant": true
    },
    {
      "inputs": [],
      "name": "chairman",
      "outputs": [
        {
          "internalType": "address",
          "name": "",
          "type": "address"
        }
      ],
      "stateMutability": "view",
      "type": "function",
      "constant": true
    },
    {
      "inputs": [],
      "name": "checkWinner",
      "outputs": [
        {
          "internalType": "uint256",
          "name": "winnerIndex",
          "type": "uint256"
        }
      ],
      "stateMutability": "view",
      "type": "function",
      "constant": true
    },
    {
      "inputs": [
        {
          "internalType": "uint256",
          "name": "",
          "type": "uint256"
        }
      ],
      "name": "choices",
      "outputs": [
        {
          "internalType": "bytes32",
          "name": "name",
          "type": "bytes32"
        },
        {
          "internalType": "int256",
          "name": "voteCount",
          "type": "int256"
        }
      ],
      "stateMutability": "view",
      "type": "function",
      "constant": true
    },
    {
      "inputs": [
        {
          "internalType": "address",
          "name": "to",
          "type": "address"
        },
        {
          "internalType": "uint256",
          "name": "amount",
          "type": "uint256"
        }
      ],
      "name": "delegateVote",
      "outputs": [
        {
          "internalType": "bool",
          "name": "",
          "type": "bool"
        }
      ],
      "stateMutability": "nonpayable",
      "type": "function"
    },
    {
      "inputs": [],
      "name": "description",
      "outputs": [
        {
          "internalType": "string",
          "name": "",
          "type": "string"
        }
      ],
      "stateMutability": "view",
      "type": "function",
      "constant": true
    },
    {
      "inputs": [],
      "name": "endDate",
      "outputs": [
        {
          "internalType": "uint256",
          "name": "",
          "type": "uint256"
        }
      ],
      "stateMutability": "view",
      "type": "function",
      "constant": true
    },
    {
      "inputs": [
        {
          "internalType": "address",
          "name": "",
          "type": "address"
        }
      ],
      "name": "hasVoted",
      "outputs": [
        {
          "internalType": "bool",
          "name": "",
          "type": "bool"
        }
      ],
      "stateMutability": "view",
      "type": "function",
      "constant": true
    },
    {
      "inputs": [],
      "name": "isFinished",
      "outputs": [
        {
          "internalType": "bool",
          "name": "finished",
          "type": "bool"
        },
        {
          "internalType": "bool",
          "name": "quorumReached",
          "type": "bool"
        }
      ],
      "stateMutability": "view",
      "type": "function",
      "constant": true
    },
    {
      "inputs": [],
      "name": "pollType",
      "outputs": [
        {
          "internalType": "string",
          "name": "",
          "type": "string"
        }
      ],
      "stateMutability": "view",
      "type": "function",
      "constant": true
    },
    {
      "inputs": [],
      "name": "quorum",
      "outputs": [
        {
          "internalType": "uint256",
          "name": "",
          "type": "uint256"
        }
      ],
      "stateMutability": "view",
      "type": "function",
      "constant": true
    },
    {
      "inputs": [],
      "name": "title",
      "outputs": [
        {
          "internalType": "string",
          "name": "",
          "type": "string"
        }
      ],
      "stateMutability": "view",
      "type": "function",
      "constant": true
    },
    {
      "inputs": [
        {
          "internalType": "uint256",
          "name": "",
          "type": "uint256"
        }
      ],
      "name": "voters",
      "outputs": [
        {
          "internalType": "address",
          "name": "",
          "type": "address"
        }
      ],
      "stateMutability": "view",
      "type": "function",
      "constant": true
    },
    {
      "inputs": [
        {
          "internalType": "address",
          "name": "",
          "type": "address"
        }
      ],
      "name": "votersWhitelist",
      "outputs": [
        {
          "internalType": "bool",
          "name": "",
          "type": "bool"
        }
      ],
      "stateMutability": "view",
      "type": "function",
      "constant": true
    },
    {
      "inputs": [
        {
          "internalType": "uint256",
          "name": "choice",
          "type": "uint256"
        },
        {
          "internalType": "int256",
          "name": "amountOfVotes",
          "type": "int256"
        }
      ],
      "name": "vote",
      "outputs": [
        {
          "internalType": "address",
          "name": "voter",
          "type": "address"
        },
        {
          "internalType": "uint256",
          "name": "choiceIndex",
          "type": "uint256"
        },
        {
          "internalType": "int256",
          "name": "voteCount",
          "type": "int256"
        }
      ],
      "stateMutability": "nonpayable",
      "type": "function"
    },
    {
      "inputs": [
        {
          "internalType": "uint256[]",
          "name": "choices",
          "type": "uint256[]"
        },
        {
          "internalType": "int256[]",
          "name": "amountOfVotesPerChoice",
          "type": "int256[]"
        }
      ],
      "name": "batchVotes",
      "outputs": [
        {
          "internalType": "bool",
          "name": "",
          "type": "bool"
        }
      ],
      "stateMutability": "nonpayable",
      "type": "function"
    }
  ],
  "bytecode": "0x60806040523480156200001157600080fd5b50604051620014e3380380620014e3833981810160405260e08110156200003757600080fd5b8151602083018051604051929492938301929190846401000000008211156200005f57600080fd5b9083019060208201858111156200007557600080fd5b82516401000000008111828201881017156200009057600080fd5b82525081516020918201929091019080838360005b83811015620000bf578181015183820152602001620000a5565b50505050905090810190601f168015620000ed5780820380516001836020036101000a031916815260200191505b50604052602001805160405193929190846401000000008211156200011157600080fd5b9083019060208201858111156200012757600080fd5b82516401000000008111828201881017156200014257600080fd5b82525081516020918201929091019080838360005b838110156200017157818101518382015260200162000157565b50505050905090810190601f1680156200019f5780820380516001836020036101000a031916815260200191505b5060405260200180516040519392919084640100000000821115620001c357600080fd5b908301906020820185811115620001d957600080fd5b8251866020820283011164010000000082111715620001f757600080fd5b82525081516020918201928201910280838360005b83811015620002265781810151838201526020016200020c565b50505050905001604052602001805160405193929190846401000000008211156200025057600080fd5b9083019060208201858111156200026657600080fd5b82518660208202830111640100000000821117156200028457600080fd5b82525081516020918201928201910280838360005b83811015620002b357818101518382015260200162000299565b5050505091909101604090815260208301519201518551929450925088918891508790879087906001600160401b0381118015620002f057600080fd5b506040519080825280602002602001820160405280156200031b578160200160208202803683370190505b508787600042821162000375576040805162461bcd60e51b815260206004820152601f60248201527f54686520656e6420646174652063616e6e6f7420626520696e20706173742e00604482015290519081900360640190fd5b87516200038a9060009060208b01906200059c565b508651620003a09060019060208a01906200059c565b508451620003b690600990602088019062000621565b506004829055600280546001600160a01b0319166001600160a01b038b1617905560038390556005805460ff191682151517905560005b8651811015620004975760008782815181106200040657fe5b60209081029190910181015160408051808201909152908152600091810182815260088054600180820183559190945291517ff3f7a9fe364faab93b216da50a3214154f22a0a2b415b23a84c8169e8b636ee3600290940293840155517ff3f7a9fe364faab93b216da50a3214154f22a0a2b415b23a84c8169e8b636ee490920191909155919091019050620003ed565b5060005b85518110156200054557848181518110620004b257fe5b6020026020010151600a6000888481518110620004cb57fe5b60200260200101516001600160a01b03166001600160a01b03168152602001908152602001600020819055506001600b60008884815181106200050a57fe5b6020908102919091018101516001600160a01b03168252810191909152604001600020805460ff19169115159190911790556001016200049b565b505050505050505050506040518060400160405280600f81526020016e115d985b1d585d1a5d99481c1bdb1b608a1b815250600690805190602001906200058e9291906200059c565b5050505050505050620006ce565b828054600181600116156101000203166002900490600052602060002090601f016020900481019282601f10620005df57805160ff19168380011785556200060f565b828001600101855582156200060f579182015b828111156200060f578251825591602001919060010190620005f2565b506200061d92915062000687565b5090565b82805482825590600052602060002090810192821562000679579160200282015b828111156200067957825182546001600160a01b0319166001600160a01b0390911617825560209092019160019091019062000642565b506200061d929150620006a7565b620006a491905b808211156200061d57600081556001016200068e565b90565b620006a491905b808211156200061d5780546001600160a01b0319168155600101620006ae565b610e0580620006de6000396000f3fe608060405234801561001057600080fd5b50600436106101215760003560e01c80637b352962116100ad578063ce425c8011610071578063ce425c8014610329578063da58c7d914610331578063e3272b6f1461034e578063f596b4f014610475578063f6fd7fde1461047d57610121565b80637b352962146102a657806387f7b975146102c9578063926f7327146102ed578063ad38867e14610319578063c24a0f8b1461032157610121565b80634567d74c116100f45780634567d74c146101ff5780634a79d50c146102255780634fefbc341461022d5780635e44daf3146102535780637284e4161461029e57610121565b806309eef43e146101265780631703a01814610160578063237637a81461017a5780633f2b96e6146101f7575b600080fd5b61014c6004803603602081101561013c57600080fd5b50356001600160a01b03166104b3565b604080519115158252519081900360200190f35b6101686104c8565b60408051918252519081900360200190f35b6101826104ce565b6040805160208082528351818301528351919283929083019185019080838360005b838110156101bc5781810151838201526020016101a4565b50505050905090810190601f1680156101e95780820380516001836020036101000a031916815260200191505b509250505060405180910390f35b61014c61055c565b61014c6004803603602081101561021557600080fd5b50356001600160a01b0316610565565b61018261057a565b6101686004803603602081101561024357600080fd5b50356001600160a01b03166105d5565b6102766004803603604081101561026957600080fd5b50803590602001356105e7565b604080516001600160a01b039094168452602084019290925282820152519081900360600190f35b6101826107f5565b6102ae61084f565b60408051921515835290151560208301528051918290030190f35b6102d1610906565b604080516001600160a01b039092168252519081900360200190f35b61014c6004803603604081101561030357600080fd5b506001600160a01b038135169060200135610915565b610168610ae0565b610168610b27565b610168610b2d565b6102d16004803603602081101561034757600080fd5b5035610b33565b61014c6004803603604081101561036457600080fd5b81019060208101813564010000000081111561037f57600080fd5b82018360208201111561039157600080fd5b803590602001918460208302840111640100000000831117156103b357600080fd5b919080806020026020016040519081016040528093929190818152602001838360200280828437600092019190915250929594936020810193503591505064010000000081111561040357600080fd5b82018360208201111561041557600080fd5b8035906020019184602083028401116401000000008311171561043757600080fd5b919080806020026020016040519081016040528093929190818152602001838360200280828437600092019190915250929550610b5a945050505050565b610168610c4d565b61049a6004803603602081101561049357600080fd5b5035610c53565b6040805192835260208301919091528051918290030190f35b60076020526000908152604090205460ff1681565b60035481565b6006805460408051602060026001851615610100026000190190941693909304601f810184900484028201840190925281815292918301828280156105545780601f1061052957610100808354040283529160200191610554565b820191906000526020600020905b81548152906001019060200180831161053757829003601f168201915b505050505081565b60055460ff1681565b600b6020526000908152604090205460ff1681565b6000805460408051602060026001851615610100026000190190941693909304601f810184900484028201840190925281815292918301828280156105545780601f1061052957610100808354040283529160200191610554565b600a6020526000908152604090205481565b6000806000806105f561084f565b509050801561064b576040805162461bcd60e51b815260206004820152601b60248201527f54686520706f6c6c2068617320616c726561647920656e6465642e0000000000604482015290519081900360640190fd5b600854861061068b5760405162461bcd60e51b815260040180806020018281038252602b815260200180610d7b602b913960400191505060405180910390fd5b60028512801561069c575060011985135b6106d75760405162461bcd60e51b8152600401808060200182810382526032815260200180610c7f6032913960400191505060405180910390fd5b336000908152600c602090815260408083208984529091529020541561072e5760405162461bcd60e51b8152600401808060200182810382526031815260200180610cd66031913960400191505060405180910390fd5b336000818152600c602090815260408083208a845282528083208990559282526007905220805460ff19166001179055600880548691908890811061076f57fe5b60009182526020918290206001600290920201018054909201909155604080518781529051889233927f1263a2295e53acd6ef8f655b8afc11fa0f2cf11925be7aa1757d741ef32a926c929081900390910190a33386600888815481106107d257fe5b906000526020600020906002020160010154829250935093509350509250925092565b60018054604080516020600284861615610100026000190190941693909304601f810184900484028201840190925281815292918301828280156105545780601f1061052957610100808354040283529160200191610554565b60008080805b6009548110156108b657600760006009838154811061087057fe5b60009182526020808320909101546001600160a01b0316835282019290925260400190205460ff166108a35760006108a6565b60015b60ff169190910190600101610855565b5080158015906108c7575060095481145b156108d9576001809250925050610902565b6004546108f0576003546001935011159050610902565b60045442101560035482101592509250505b9091565b6002546001600160a01b031681565b60008061092061084f565b5090508015610976576040805162461bcd60e51b815260206004820152601b60248201527f54686520706f6c6c2068617320616c726561647920656e6465642e0000000000604482015290519081900360640190fd5b60055460ff166109b75760405162461bcd60e51b815260040180806020018281038252602a815260200180610da6602a913960400191505060405180910390fd5b336000908152600b602052604090205460ff16610a055760405162461bcd60e51b8152600401808060200182810382526021815260200180610d5a6021913960400191505060405180910390fd5b336000908152600a6020526040902054831115610a535760405162461bcd60e51b8152600401808060200182810382526021815260200180610d396021913960400191505060405180910390fd5b6001600160a01b0384166000908152600b602052604090205460ff16610aaa5760405162461bcd60e51b8152600401808060200182810382526025815260200180610cb16025913960400191505060405180910390fd5b336000908152600a6020526040808220805486900390556001600160a01b03861682529020805484019055600191505092915050565b600080805b600854811015610b21578160088281548110610afd57fe5b9060005260206000209060020201600101541315610b19578091505b600101610ae5565b50905090565b60045481565b60085490565b60098181548110610b4057fe5b6000918252602090912001546001600160a01b0316905081565b600080610b6561084f565b5090508015610bbb576040805162461bcd60e51b815260206004820152601b60248201527f54686520706f6c6c2068617320616c726561647920656e6465642e0000000000604482015290519081900360640190fd5b8251845114610bfb5760405162461bcd60e51b8152600401808060200182810382526032815260200180610d076032913960400191505060405180910390fd5b60005b8451811015610c4257610c37858281518110610c1657fe5b6020026020010151858381518110610c2a57fe5b60200260200101516105e7565b505050600101610bfe565b506001949350505050565b60095490565b60088181548110610c6057fe5b6000918252602090912060029091020180546001909101549091508256fe496e636f727265637420766f746520747970652c206f6e6c79202d312c2030206f72202b312061726520616c6c6f7765642e54686520726563697069656e74206973206e6f7420616c6c6f77656420746f20766f74652e54686520766f7465722068617320616c726561647920676976656e20766f746520666f7220746869732063686f6963652e4e756d626572206f662063686f6963657320616e6420766f7465732070726f766964656420646f206e6f74206d617463682e54686520766f7465722068617320696e73756666696369656e7420766f7465732e54686520766f746572206973206e6f7420616c6c6f77656420746f20766f74652e5468657265206973206e6f20737563682063616e6469646174652077697468207468697320696e6465782e566f74652064656c65676174696f6e2069732064697361626c656420666f72207468697320706f6c6c2ea2646970667358221220bf8624119c19a5f140f30c6c02de7418e14c2c1e1edb4a443071a5bdc349f36264736f6c63430006080033",
  "immutableReferences": {},
  "source": "// SPDX-License-Identifier: MIT\r\npragma solidity >=0.4.22 <0.8.0;\r\n\r\nimport './BasePoll.sol';\r\n\r\ncontract EvaluativePoll is BasePoll {\r\n  //address to choice to rating which user gave for certain choice\r\n  mapping(address => mapping(uint256 => int256)) hasVotedFor;\r\n\r\n  constructor(\r\n    address _chairman,\r\n    string memory _title,\r\n    string memory _description,\r\n    bytes32[] memory _choices,\r\n    address[] memory _voters,\r\n    uint256 _quorum,\r\n    uint256 _endDate\r\n  )\r\n    public\r\n    BasePoll(\r\n      _chairman,\r\n      _title,\r\n      _description,\r\n      _choices,\r\n      _voters,\r\n      new uint256[](_voters.length),\r\n      _quorum,\r\n      _endDate,\r\n      false\r\n    )\r\n  {\r\n    pollType = 'Evaluative poll';\r\n  }\r\n\r\n  function vote(uint256 choice, int256 amountOfVotes)\r\n    public\r\n    override\r\n    onlyOngoing\r\n    returns (\r\n      address voter,\r\n      uint256 choiceIndex,\r\n      int256 voteCount\r\n    )\r\n  {\r\n    require(choice < choices.length, 'There is no such candidate with this index.');\r\n    require(amountOfVotes < 2 && amountOfVotes > -2, 'Incorrect vote type, only -1, 0 or +1 are allowed.');\r\n    require(hasVotedFor[msg.sender][choice] == 0, 'The voter has already given vote for this choice.');\r\n\r\n    hasVotedFor[msg.sender][choice] = amountOfVotes;\r\n    hasVoted[msg.sender] = true;\r\n    choices[choice].voteCount += amountOfVotes;\r\n    emit Voted(msg.sender, choice, amountOfVotes);\r\n\r\n    return (msg.sender, choice, choices[choice].voteCount);\r\n  }\r\n\r\n  function batchVotes(uint256[] memory choices, int256[] memory amountOfVotesPerChoice)\r\n    public\r\n    onlyOngoing\r\n    returns (bool)\r\n  {\r\n    require(choices.length == amountOfVotesPerChoice.length, 'Number of choices and votes provided do not match.');\r\n\r\n    for (uint256 i = 0; i < choices.length; i++) {\r\n      vote(choices[i], amountOfVotesPerChoice[i]);\r\n    }\r\n\r\n    return true;\r\n  }\r\n}\r\n",
  "sourcePath": "/home/mrkampla/Votr/contracts/contracts/polls/EvaluativePoll.sol",
  "compiler": {
    "name": "solc",
    "version": "0.6.8+commit.0bbfe453.Emscripten.clang"
  },
  "schemaVersion": "3.3.3",
  "updatedAt": "2021-02-23T14:57:17.703Z",
  "networkType": "ethereum",
  "devdoc": {
    "methods": {}
  },
  "userdoc": {
    "methods": {}
  }
}