{
  "contractName": "StringHelper",
  "abi": [
    {
      "inputs": [
        {
          "internalType": "bytes",
          "name": "_bytes32",
          "type": "bytes"
        }
      ],
      "name": "bytes32ToString",
      "outputs": [
        {
          "internalType": "string",
          "name": "",
          "type": "string"
        }
      ],
      "stateMutability": "pure",
      "type": "function"
    }
  ],
  "bytecode": "0x61029e610026600b82828239805160001a60731461001957fe5b30600052607381538281f3fe73000000000000000000000000000000000000000030146080604052600436106100355760003560e01c80639e5b07df1461003a575b600080fd5b6100de6004803603602081101561005057600080fd5b810190602081018135600160201b81111561006a57600080fd5b82018360208201111561007c57600080fd5b803590602001918460018302840111600160201b8311171561009d57600080fd5b91908080601f016020809104026020016040519081016040528093929190818152602001838380828437600092019190915250929550610153945050505050565b6040805160208082528351818301528351919283929083019185019080838360005b83811015610118578181015183820152602001610100565b50505050905090810190601f1680156101455780820380516001836020036101000a031916815260200191505b509250505060405180910390f35b606060005b60208160ff161080156101875750828160ff168151811061017557fe5b01602001516001600160f81b03191615155b1561019457600101610158565b60608160ff166001600160401b03811180156101af57600080fd5b506040519080825280601f01601f1916602001820160405280156101da576020820181803683370190505b509050600091505b60208260ff161080156102115750838260ff16815181106101ff57fe5b01602001516001600160f81b03191615155b1561026157838260ff168151811061022557fe5b602001015160f81c60f81b818360ff168151811061023f57fe5b60200101906001600160f81b031916908160001a9053506001909101906101e2565b939250505056fea2646970667358221220dcb4664a57723b1fa5523a2729e96a4ba7dfb14e759e41a8abb8826db32dca5064736f6c63430006080033",
  "immutableReferences": {},
  "source": "// SPDX-License-Identifier: MIT\npragma solidity >=0.4.22 <0.8.0;\n\nlibrary StringHelper {\n  // function stringToBytes32(string memory source) public pure returns (bytes32 result) {\n  //   bytes memory tempEmptyStringTest = bytes(source);\n  //   if (tempEmptyStringTest.length == 0) {\n  //     return 0x0;\n  //   }\n\n  //   assembly {\n  //     result := mload(add(source, 32))\n  //   }\n  // }\n\n  function bytes32ToString(bytes memory _bytes32) public pure returns (string memory) {\n    uint8 i = 0;\n    while (i < 32 && _bytes32[i] != 0) {\n      i++;\n    }\n    bytes memory bytesArray = new bytes(i);\n    for (i = 0; i < 32 && _bytes32[i] != 0; i++) {\n      bytesArray[i] = _bytes32[i];\n    }\n    return string(bytesArray);\n  }\n\n  // function bytes32ArrayToString(bytes32[] memory data) public pure returns (string memory) {\n  //   bytes memory bytesString = new bytes(data.length * 32);\n  //   uint256 urlLength;\n  //   for (uint256 i = 0; i < data.length; i++) {\n  //     for (uint256 j = 0; j < 32; j++) {\n  //       bytes1 char = bytes1(bytes32(uint256(data[i]) * 2**(8 * j)));\n  //       if (char != 0) {\n  //         bytesString[urlLength] = char;\n  //         urlLength += 1;\n  //       }\n  //     }\n  //   }\n  //   bytes memory bytesStringTrimmed = new bytes(urlLength);\n  //   for (uint256 i = 0; i < urlLength; i++) {\n  //     bytesStringTrimmed[i] = bytesString[i];\n  //   }\n  //   return string(bytesStringTrimmed);\n  // }\n}\n",
  "sourcePath": "/home/mrkampla/Votr/contracts/contracts/StringHelper.sol",
  "compiler": {
    "name": "solc",
    "version": "0.6.8+commit.0bbfe453.Emscripten.clang"
  },
  "schemaVersion": "3.3.3",
  "updatedAt": "2021-02-09T01:50:58.770Z",
  "devdoc": {
    "methods": {}
  },
  "userdoc": {
    "methods": {}
  }
}