{
  "contractName": "VotrPollFactory",
  "abi": [
    {
      "anonymous": false,
      "inputs": [
        {
          "indexed": true,
          "internalType": "address",
          "name": "owner",
          "type": "address"
        },
        {
          "indexed": true,
          "internalType": "address",
          "name": "pollAddress",
          "type": "address"
        }
      ],
      "name": "PollCreated",
      "type": "event"
    },
    {
      "anonymous": false,
      "inputs": [
        {
          "indexed": true,
          "internalType": "address",
          "name": "pollAddress",
          "type": "address"
        },
        {
          "indexed": true,
          "internalType": "address",
          "name": "who",
          "type": "address"
        },
        {
          "indexed": false,
          "internalType": "uint256[]",
          "name": "choices",
          "type": "uint256[]"
        },
        {
          "indexed": false,
          "internalType": "int256[]",
          "name": "votesAmount",
          "type": "int256[]"
        }
      ],
      "name": "Voted",
      "type": "event"
    },
    {
      "inputs": [
        {
          "internalType": "uint256",
          "name": "",
          "type": "uint256"
        }
      ],
      "name": "allPolls",
      "outputs": [
        {
          "internalType": "address",
          "name": "",
          "type": "address"
        }
      ],
      "stateMutability": "view",
      "type": "function",
      "constant": true
    },
    {
      "inputs": [
        {
          "internalType": "address",
          "name": "",
          "type": "address"
        }
      ],
      "name": "doesPollExist",
      "outputs": [
        {
          "internalType": "bool",
          "name": "",
          "type": "bool"
        }
      ],
      "stateMutability": "view",
      "type": "function",
      "constant": true
    },
    {
      "inputs": [],
      "name": "numberOfPolls",
      "outputs": [
        {
          "internalType": "uint256",
          "name": "",
          "type": "uint256"
        }
      ],
      "stateMutability": "view",
      "type": "function",
      "constant": true
    },
    {
      "inputs": [
        {
          "internalType": "address",
          "name": "_pollType",
          "type": "address"
        },
        {
          "components": [
            {
              "internalType": "address",
              "name": "basedOnToken",
              "type": "address"
            },
            {
              "internalType": "string",
              "name": "name",
              "type": "string"
            },
            {
              "internalType": "string",
              "name": "symbol",
              "type": "string"
            }
          ],
          "internalType": "struct IVotrPollFactory.TokenSettings",
          "name": "_tokenSettings",
          "type": "tuple"
        },
        {
          "components": [
            {
              "internalType": "string",
              "name": "title",
              "type": "string"
            },
            {
              "internalType": "string",
              "name": "description",
              "type": "string"
            },
            {
              "internalType": "address",
              "name": "chairman",
              "type": "address"
            },
            {
              "internalType": "uint256",
              "name": "quorum",
              "type": "uint256"
            },
            {
              "internalType": "uint256",
              "name": "endDate",
              "type": "uint256"
            },
            {
              "internalType": "bool",
              "name": "allowVoteDelegation",
              "type": "bool"
            },
            {
              "internalType": "address",
              "name": "callbackContractAddress",
              "type": "address"
            }
          ],
          "internalType": "struct IVotrPollFactory.PollSettings",
          "name": "_pollSettings",
          "type": "tuple"
        },
        {
          "internalType": "string[]",
          "name": "_choices",
          "type": "string[]"
        },
        {
          "components": [
            {
              "internalType": "address",
              "name": "addr",
              "type": "address"
            },
            {
              "internalType": "uint256",
              "name": "allowedVotes",
              "type": "uint256"
            }
          ],
          "internalType": "struct IVotrPollFactory.Voter[]",
          "name": "_voters",
          "type": "tuple[]"
        }
      ],
      "name": "createPoll",
      "outputs": [
        {
          "internalType": "address",
          "name": "",
          "type": "address"
        }
      ],
      "stateMutability": "nonpayable",
      "type": "function"
    },
    {
      "inputs": [
        {
          "internalType": "address",
          "name": "who",
          "type": "address"
        },
        {
          "internalType": "uint256[]",
          "name": "choices",
          "type": "uint256[]"
        },
        {
          "internalType": "int256[]",
          "name": "votesAmount",
          "type": "int256[]"
        }
      ],
      "name": "emitVotedEvent",
      "outputs": [],
      "stateMutability": "nonpayable",
      "type": "function"
    }
  ],
  "bytecode": "0x608060405234801561001057600080fd5b5061505c806100206000396000f3fe60806040523480156200001157600080fd5b50600436106200005e5760003560e01c80634ceb52111462000063578063637cd874146200009e57806393c5c6df14620000ce578063b258b42d14620000e7578063d60ae88714620000fe575b600080fd5b620000896200007436600462000642565b60026020526000908152604090205460ff1681565b60405190151581526020015b60405180910390f35b620000b5620000af36600462000882565b62000117565b6040516001600160a01b03909116815260200162000095565b620000e5620000df36600462000667565b62000142565b005b620000b5620000f836600462000747565b620001ff565b6200010860005481565b60405190815260200162000095565b600181815481106200012857600080fd5b6000918252602090912001546001600160a01b0316905081565b3360009081526002602052604090205460ff161515600114620001ab5760405162461bcd60e51b815260206004820152601b60248201527f43616c6c61626c65206f6e6c7920627920566f747220706f6c6c730000000000604482015260640160405180910390fd5b826001600160a01b0316336001600160a01b03167f2f6c09dd047c162f5eb90c208d9efc0c0a6603bb1b7180366b7442bee62292ff8484604051620001f292919062000ad4565b60405180910390a3505050565b6000803330888888888860405162000217906200031e565b62000229979695949392919062000a17565b604051809103906000f08015801562000246573d6000803e3d6000fd5b50905062000255338262000260565b979650505050505050565b6000816001600160a01b0316836001600160a01b03167f5b850d927499bc55df3941f7c4ae97ab6fce34a21f4df0ab30694f24353445b260405160405180910390a3600080549080620002b38362000c19565b90915550506001805480820182557fb10e2d527612073b26eecdfd717e6a320cf44b4afac2b0732d9fcbe2b7fa0cf60180546001600160a01b0319166001600160a01b0385169081179091556000908152600260205260409020805460ff1916909117905550919050565b6143cd8062000c5a83390190565b80356001600160a01b03811681146200034457600080fd5b919050565b600082601f8301126200035b57600080fd5b81356020620003746200036e8362000bf2565b62000bbe565b80838252828201915082860187848660051b89010111156200039557600080fd5b60005b85811015620003b65781358452928401929084019060010162000398565b5090979650505050505050565b600082601f830112620003d557600080fd5b81356020620003e86200036e8362000bf2565b80838252828201915082860187848660051b89010111156200040957600080fd5b6000805b868110156200045157823567ffffffffffffffff8111156200042d578283fd5b6200043d8b88838d010162000506565b86525093850193918501916001016200040d565b509198975050505050505050565b600082601f8301126200047157600080fd5b81356020620004846200036e8362000bf2565b80838252828201915082860187848660061b8901011115620004a557600080fd5b6000805b868110156200045157604080848c031215620004c3578283fd5b620004cd62000b46565b620004d8856200032c565b8152848801358882015286529486019490920191600101620004a9565b803580151581146200034457600080fd5b600082601f8301126200051857600080fd5b813567ffffffffffffffff81111562000535576200053562000c43565b6200054a601f8201601f191660200162000bbe565b8181528460208386010111156200056057600080fd5b816020850160208301376000918101602001919091529392505050565b600060e082840312156200059057600080fd5b6200059a62000b72565b9050813567ffffffffffffffff80821115620005b557600080fd5b620005c38583860162000506565b83526020840135915080821115620005da57600080fd5b50620005e98482850162000506565b602083015250620005fd604083016200032c565b604082015260608201356060820152608082013560808201526200062460a08301620004f5565b60a08201526200063760c083016200032c565b60c082015292915050565b6000602082840312156200065557600080fd5b62000660826200032c565b9392505050565b6000806000606084860312156200067d57600080fd5b62000688846200032c565b925060208085013567ffffffffffffffff80821115620006a757600080fd5b818701915087601f830112620006bc57600080fd5b8135620006cd6200036e8262000bf2565b8082825285820191508585018b878560051b8801011115620006ee57600080fd5b600095505b8386101562000713578035835260019590950194918601918601620006f3565b509650505060408701359250808311156200072d57600080fd5b50506200073d8682870162000349565b9150509250925092565b600080600080600060a086880312156200076057600080fd5b6200076b866200032c565b9450602086013567ffffffffffffffff808211156200078957600080fd5b908701906060828a0312156200079e57600080fd5b620007a862000b98565b620007b3836200032c565b8152602083013582811115620007c857600080fd5b620007d68b82860162000506565b602083015250604083013582811115620007ef57600080fd5b620007fd8b82860162000506565b6040830152508096505060408801359150808211156200081c57600080fd5b6200082a89838a016200057d565b945060608801359150808211156200084157600080fd5b6200084f89838a01620003c3565b935060808801359150808211156200086657600080fd5b5062000875888289016200045f565b9150509295509295909350565b6000602082840312156200089557600080fd5b5035919050565b600081518084526020808501808196508360051b8101915082860160005b85811015620008e8578284038952620008d584835162000946565b98850198935090840190600101620008ba565b5091979650505050505050565b600081518084526020808501945080840160005b838110156200093b57815180516001600160a01b03168852830151838801526040909601959082019060010162000909565b509495945050505050565b6000815180845260005b818110156200096e5760208185018101518683018201520162000950565b8181111562000981576000602083870101525b50601f01601f19169290920160200192915050565b6000815160e08452620009ad60e085018262000946565b905060208301518482036020860152620009c8828262000946565b915050604083015160018060a01b038082166040870152606085015160608701526080850151608087015260a0850151151560a08701528060c08601511660c087015250508091505092915050565b600060018060a01b03808a1683528089166020840152808816604084015260e060608401528087511660e0840152506020860151606061010084015262000a6361014084018262000946565b9050604087015160df198483030161012085015262000a83828262000946565b915050828103608084015262000a9a818762000996565b905082810360a084015262000ab081866200089c565b905082810360c084015262000ac68185620008f5565b9a9950505050505050505050565b604080825283519082018190526000906020906060840190828701845b8281101562000b0f5781518452928401929084019060010162000af1565b5050508381038285015284518082528583019183019060005b81811015620003b65783518352928401929184019160010162000b28565b6040805190810167ffffffffffffffff8111828210171562000b6c5762000b6c62000c43565b60405290565b60405160e0810167ffffffffffffffff8111828210171562000b6c5762000b6c62000c43565b6040516060810167ffffffffffffffff8111828210171562000b6c5762000b6c62000c43565b604051601f8201601f1916810167ffffffffffffffff8111828210171562000bea5762000bea62000c43565b604052919050565b600067ffffffffffffffff82111562000c0f5762000c0f62000c43565b5060051b60200190565b600060001982141562000c3c57634e487b7160e01b600052601160045260246000fd5b5060010190565b634e487b7160e01b600052604160045260246000fdfe60a06040523480156200001157600080fd5b50604051620043cd380380620043cd833981016040819052620000349162000efb565b836000015185308287602001518860400151818181600590805190602001906200006092919062000a4e565b5080516200007690600690602084019062000a4e565b50506007805460ff19169055506200009060003362000388565b620000ab600080516020620043ad8339815191523362000388565b620000c66000805160206200438d8339815191523362000388565b505060601b6001600160601b031916608052600a8054600b80546001600160a01b03199081166001600160a01b0395861617909155600c805482168d86161790556011805482168e861617905516918916919091179055506200013b9050600080516020620043ad83398151915286620003cb565b620001566000805160206200438d83398151915286620003cb565b81516200016b90601090602085019062000add565b50825180516200018491600d9160209091019062000a4e565b5060208084015180516200019d92600e92019062000a4e565b506060830151601255608083015160135560a08301516011805460ff60a01b1916600160a01b9215159290920291909117905560c0830151601480546001600160a01b0319166001600160a01b03928316179055845116620003185760005b81518110156200031657600f8282815181106200021d576200021d6200123f565b6020908102919091018101515182546001810184556000938452919092200180546001600160a01b0319166001600160a01b039092169190911790558151620002af908390839081106200027557620002756200123f565b602002602001015160000151878484815181106200029757620002976200123f565b602002602001015160200151620003e260201b60201c565b62000301828281518110620002c857620002c86200123f565b602002602001015160000151838381518110620002e957620002e96200123f565b6020026020010151602001516200050e60201b60201c565b806200030d816200120b565b915050620001fc565b505b60405163fdb978db60e01b81523060048201526001600160a01b03888116602483015286169063fdb978db90604401600060405180830381600087803b1580156200036257600080fd5b505af115801562000377573d6000803e3d6000fd5b50505050505050505050506200126b565b6200039f82826200060260201b6200168f1760201c565b6000828152600160209081526040909120620003c6918390620016996200060e821b17901c565b505050565b6200039f82826200062e60201b620016ae1760201c565b6001600160a01b0383166200044a5760405162461bcd60e51b8152602060048201526024808201527f45524332303a20617070726f76652066726f6d20746865207a65726f206164646044820152637265737360e01b60648201526084015b60405180910390fd5b6001600160a01b038216620004ad5760405162461bcd60e51b815260206004820152602260248201527f45524332303a20617070726f766520746f20746865207a65726f206164647265604482015261737360f01b606482015260840162000441565b6001600160a01b0383811660008181526003602090815260408083209487168084529482529182902085905590518481527f8c5be1e5ebec7d5bd14f71427d1e84f3dd0314c0f7b2291e5b200ac8c7c3b925910160405180910390a3505050565b6001600160a01b038216620005665760405162461bcd60e51b815260206004820152601f60248201527f45524332303a206d696e7420746f20746865207a65726f206164647265737300604482015260640162000441565b620005746000838362000658565b806004600082825462000588919062001144565b90915550506001600160a01b03821660009081526002602052604081208054839290620005b790849062001144565b90915550506040518181526001600160a01b038316906000907fddf252ad1be2c89b69c2b068fc378daa952ba7f163c4a11628f55a4df523b3ef9060200160405180910390a35b5050565b620005fe828262000670565b600062000625836001600160a01b03841662000710565b90505b92915050565b6000828152602081905260409020600101546200064c813362000762565b620003c6838362000670565b620003c6838383620007fd60201b620016d41760201c565b6000828152602081815260408083206001600160a01b038516845290915290205460ff16620005fe576000828152602081815260408083206001600160a01b03851684529091529020805460ff19166001179055620006cc3390565b6001600160a01b0316816001600160a01b0316837f2f8788117e7eff1d82e926ec794901d17c78024a50270940304540a733656f0d60405160405180910390a45050565b6000818152600183016020526040812054620007595750815460018181018455600084815260208082209093018490558454848252828601909352604090209190915562000628565b50600062000628565b6000828152602081815260408083206001600160a01b038516845290915290205460ff16620005fe57620007ac816001600160a01b031660146200081560201b620016df1760201c565b620007c2836020620016df62000815821b17811c565b604051602001620007d592919062000fed565b60408051601f198184030181529082905262461bcd60e51b8252620004419160040162001066565b620003c6838383620009ce60201b6200187b1760201c565b60606000620008268360026200115f565b6200083390600262001144565b6001600160401b038111156200084d576200084d62001255565b6040519080825280601f01601f19166020018201604052801562000878576020820181803683370190505b509050600360fc1b816000815181106200089657620008966200123f565b60200101906001600160f81b031916908160001a905350600f60fb1b81600181518110620008c857620008c86200123f565b60200101906001600160f81b031916908160001a9053506000620008ee8460026200115f565b620008fb90600162001144565b90505b60018111156200097d576f181899199a1a9b1b9c1cb0b131b232b360811b85600f16601081106200093357620009336200123f565b1a60f81b8282815181106200094c576200094c6200123f565b60200101906001600160f81b031916908160001a90535060049490941c936200097581620011b4565b9050620008fe565b508315620006255760405162461bcd60e51b815260206004820181905260248201527f537472696e67733a20686578206c656e67746820696e73756666696369656e74604482015260640162000441565b620009e6838383620003c660201b62000cd01760201c565b60075460ff1615620003c65760405162461bcd60e51b815260206004820152602a60248201527f45524332305061757361626c653a20746f6b656e207472616e736665722077686044820152691a5b19481c185d5cd95960b21b606482015260840162000441565b82805462000a5c90620011ce565b90600052602060002090601f01602090048101928262000a80576000855562000acb565b82601f1062000a9b57805160ff191683800117855562000acb565b8280016001018555821562000acb579182015b8281111562000acb57825182559160200191906001019062000aae565b5062000ad992915062000b3d565b5090565b82805482825590600052602060002090810192821562000b2f579160200282015b8281111562000b2f578251805162000b1e91849160209091019062000a4e565b509160200191906001019062000afe565b5062000ad992915062000b54565b5b8082111562000ad9576000815560010162000b3e565b8082111562000ad957600062000b6b828262000b75565b5060010162000b54565b50805462000b8390620011ce565b6000825580601f1062000b94575050565b601f01602090049060005260206000209081019062000bb4919062000b3d565b50565b80516001600160a01b038116811462000bcf57600080fd5b919050565b600082601f83011262000be657600080fd5b8151602062000bff62000bf9836200111e565b620010eb565b80838252828201915082860187848660051b890101111562000c2057600080fd5b6000805b8681101562000c675782516001600160401b0381111562000c43578283fd5b62000c538b88838d010162000d1c565b865250938501939185019160010162000c24565b509198975050505050505050565b600082601f83011262000c8757600080fd5b8151602062000c9a62000bf9836200111e565b80838252828201915082860187848660061b890101111562000cbb57600080fd5b6000805b8681101562000c6757604080848c03121562000cd9578283fd5b62000ce36200109b565b62000cee8562000bb7565b815284880151888201528652948601949092019160010162000cbf565b8051801515811462000bcf57600080fd5b600082601f83011262000d2e57600080fd5b81516001600160401b0381111562000d4a5762000d4a62001255565b62000d5f601f8201601f1916602001620010eb565b81815284602083860101111562000d7557600080fd5b62000d8882602083016020870162001181565b949350505050565b600060e0828403121562000da357600080fd5b62000dad620010c6565b82519091506001600160401b038082111562000dc857600080fd5b62000dd68583860162000d1c565b8352602084015191508082111562000ded57600080fd5b5062000dfc8482850162000d1c565b60208301525062000e106040830162000bb7565b6040820152606082015160608201526080820151608082015262000e3760a0830162000d0b565b60a082015262000e4a60c0830162000bb7565b60c082015292915050565b60006060828403121562000e6857600080fd5b604051606081016001600160401b03808211838310171562000e8e5762000e8e62001255565b8160405282935062000ea08562000bb7565b8352602085015191508082111562000eb757600080fd5b62000ec58683870162000d1c565b6020840152604085015191508082111562000edf57600080fd5b5062000eee8582860162000d1c565b6040830152505092915050565b600080600080600080600060e0888a03121562000f1757600080fd5b62000f228862000bb7565b965062000f326020890162000bb7565b955062000f426040890162000bb7565b60608901519095506001600160401b038082111562000f6057600080fd5b62000f6e8b838c0162000e55565b955060808a015191508082111562000f8557600080fd5b62000f938b838c0162000d90565b945060a08a015191508082111562000faa57600080fd5b62000fb88b838c0162000bd4565b935060c08a015191508082111562000fcf57600080fd5b5062000fde8a828b0162000c75565b91505092959891949750929550565b7f416363657373436f6e74726f6c3a206163636f756e74200000000000000000008152600083516200102781601785016020880162001181565b7001034b99036b4b9b9b4b733903937b6329607d1b60179184019182015283516200105a81602884016020880162001181565b01602801949350505050565b60208152600082518060208401526200108781604085016020870162001181565b601f01601f19169190910160400192915050565b604080519081016001600160401b0381118282101715620010c057620010c062001255565b60405290565b60405160e081016001600160401b0381118282101715620010c057620010c062001255565b604051601f8201601f191681016001600160401b038111828210171562001116576200111662001255565b604052919050565b60006001600160401b038211156200113a576200113a62001255565b5060051b60200190565b600082198211156200115a576200115a62001229565b500190565b60008160001904831182151516156200117c576200117c62001229565b500290565b60005b838110156200119e57818101518382015260200162001184565b83811115620011ae576000848401525b50505050565b600081620011c657620011c662001229565b506000190190565b600181811c90821680620011e357607f821691505b602082108114156200120557634e487b7160e01b600052602260045260246000fd5b50919050565b600060001982141562001222576200122262001229565b5060010190565b634e487b7160e01b600052601160045260246000fd5b634e487b7160e01b600052603260045260246000fd5b634e487b7160e01b600052604160045260246000fd5b60805160601c6130ee6200129f6000396000818161056c01528181610c2d01528181610cdc01526122fb01526130ee6000f3fe608060405234801561001057600080fd5b50600436106103265760003560e01c80635d5e9044116101b8578063a217fddf11610104578063d5391393116100a2578063dd62ed3e1161007c578063dd62ed3e14610708578063e63ab1e914610741578063f6fd7fde14610768578063fbb14a4f1461077b57600080fd5b8063d5391393146106bb578063d547741f146106e2578063da58c7d9146106f557600080fd5b8063ad38867e116100de578063ad38867e1461068f578063c24a0f8b14610697578063ca15c873146106a0578063cd24b0a3146106b357600080fd5b8063a217fddf14610661578063a457c2d714610669578063a9059cbb1461067c57600080fd5b80638456cb591161017157806391d148541161014b57806391d148541461061f578063926f73271461063257806395d89b41146106455780639f1d36631461064d57600080fd5b80638456cb59146105f157806387f7b975146105f95780639010d07c1461060c57600080fd5b80635d5e9044146105475780636f307dc31461056757806370a082311461058e5780637284e416146105b757806379cc6790146105bf5780637b352962146105d257600080fd5b80632dbf437911610277578063395093511161023057806340c10f191161020a57806340c10f191461050e57806342966c68146105215780634a79d50c146105345780635c975abb1461053c57600080fd5b806339509351146104df5780633f2b96e6146104f25780633f4ba83a1461050657600080fd5b80632dbf4379146104715780632f2ff15d146104845780632f4f21e2146104975780632f4f7fbb146104aa578063313ce567146104bd57806336568abe146104cc57600080fd5b80631338736f116102e4578063205c2878116102be578063205c287814610415578063237637a81461042857806323b872dd1461043b578063248a9ca31461044e57600080fd5b80631338736f146103e35780631703a0181461040457806318160ddd1461040d57600080fd5b8062df475e1461032b57806301ffc9a71461035b57806306fdde031461037e578063083b27321461039357806308f433331461039d578063095ea7b3146103d0575b600080fd5b60145461033e906001600160a01b031681565b6040516001600160a01b0390911681526020015b60405180910390f35b61036e610369366004612ce7565b610790565b6040519015158152602001610352565b6103866107bb565b6040516103529190612e72565b61039b61084d565b005b6103b06103ab366004612b5a565b610a2d565b604080519485526020850193909352918301526060820152608001610352565b61036e6103de366004612b5a565b610a73565b6103f66103f1366004612cc5565b610a89565b604051908152602001610352565b6103f660125481565b6004546103f6565b61036e610423366004612b5a565b610c1c565b600a5461033e906001600160a01b031681565b61036e610449366004612b1e565b610c53565b6103f661045c366004612c89565b60009081526020819052604090206001015490565b600b5461033e906001600160a01b031681565b61039b610492366004612ca2565b610cae565b61036e6104a5366004612b5a565b610cd5565b61036e6104b8366004612b84565b610d0d565b60405160128152602001610352565b61039b6104da366004612ca2565b610e04565b61036e6104ed366004612b5a565b610e26565b60115461036e90600160a01b900460ff1681565b61039b610e5d565b61039b61051c366004612b5a565b610f03565b61039b61052f366004612c89565b610fa6565b610386610fb3565b60075460ff1661036e565b6103f6610555366004612ad0565b60096020526000908152604090205481565b61033e7f000000000000000000000000000000000000000000000000000000000000000081565b6103f661059c366004612ad0565b6001600160a01b031660009081526002602052604090205490565b610386611041565b61039b6105cd366004612b5a565b61104e565b6105da6110cf565b604080519215158352901515602083015201610352565b61039b611164565b60115461033e906001600160a01b031681565b61033e61061a366004612cc5565b611208565b61036e61062d366004612ca2565b611220565b61036e610640366004612b5a565b611249565b610386611306565b60145461036e90600160a01b900460ff1681565b6103f6600081565b61036e610677366004612b5a565b611315565b61036e61068a366004612b5a565b6113ae565b6103f66113ea565b6103f660135481565b6103f66106ae366004612c89565b611470565b61039b611487565b6103f67f9f2df0fed2c77648de5860a4cc508cd0818c85b8b8a1ab4ceeef8d981c8956a681565b61039b6106f0366004612ca2565b611525565b61033e610703366004612c89565b61152f565b6103f6610716366004612aeb565b6001600160a01b03918216600090815260036020908152604080832093909416825291909152205490565b6103f67f65d7a28e3265b37a6474929f336521b332c1681b933f6cb9f3376673440d862a81565b610386610776366004612c89565b611559565b610783611584565b6040516103529190612e5f565b60006001600160e01b03198216635a05180f60e01b14806107b557506107b5826118e1565b92915050565b6060600580546107ca90613010565b80601f01602080910402602001604051908101604052809291908181526020018280546107f690613010565b80156108435780601f1061081857610100808354040283529160200191610843565b820191906000526020600020905b81548152906001019060200180831161082657829003601f168201915b5050505050905090565b6000806108586110cf565b90925090506001821515146108cb5760405162461bcd60e51b815260206004820152602e60248201527f43616e6e6f7420657865637574652063616c6c6261636b20756e74696c20706f60448201526d1b1b081a5cc8199a5b9a5cda195960921b60648201526084015b60405180910390fd5b60018115151461093c5760405162461bcd60e51b815260206004820152603660248201527f43616e6e6f7420657865637574652063616c6c6261636b2062656361757365206044820152751c5d5bdc9d5b481dd85cc81b9bdd081c995858da195960521b60648201526084016108c2565b601454600160a01b900460ff16156109965760405162461bcd60e51b815260206004820181905260248201527f43616c6c6261636b2063616e206f6e6c792062652063616c6c6564206f6e636560448201526064016108c2565b6014805460ff60a01b198116600160a01b179091556001600160a01b0316633790197b6109c16113ea565b600a5460405160e084901b6001600160e01b031916815260048101929092523060248301526001600160a01b03166044820152606401600060405180830381600087803b158015610a1157600080fd5b505af1158015610a25573d6000803e3d6000fd5b505050505050565b60086020528160005260406000208181548110610a4957600080fd5b60009182526020909120600490910201805460018201546002830154600390930154919450925084565b6000610a80338484611916565b50600192915050565b6000808311610ad15760405162461bcd60e51b815260206004820152601460248201527343616e6e6f74206c6f636b203020746f6b656e7360601b60448201526064016108c2565b610adb3384610cd5565b506040805160808101825233600090815260096020908152838220548352820186905242928201929092526060810184905290610b1782611a3a565b905042841180610b25575083155b610b715760405162461bcd60e51b815260206004820181905260248201527f4c6f636b757020706572696f642063616e6e6f7420656e6420696e207061737460448201526064016108c2565b8315610b8957610b8933610b8484611a3a565b611adc565b336000908152600960205260408120805491610ba483613045565b9091555050336000818152600860209081526040808320805460018181018355918552938390208751600490950201938455918601519183019190915584015160028201556060840151600390910155600a54610c1491906001600160a01b0316610c0f8489612f31565b611916565b505092915050565b6000610c283383611bc7565b610a807f00000000000000000000000000000000000000000000000000000000000000008484611d21565b601154600090600160a01b900460ff16151560011480610c7d5750600a546001600160a01b031633145b610c995760405162461bcd60e51b81526004016108c290612ea5565b610ca4848484611d84565b90505b9392505050565b610cb882826116ae565b6000828152600160205260409020610cd09082611699565b505050565b6000610d037f0000000000000000000000000000000000000000000000000000000000000000333085611e2e565b610a808383611adc565b600a546040516333dd0a3d60e11b81526000916001600160a01b0316906367ba147a90610d4290339087908790600401612df6565b602060405180830381600087803b158015610d5c57600080fd5b505af1158015610d70573d6000803e3d6000fd5b505050506040513d601f19601f82011682018060405250810190610d949190612c44565b50600c546040516393c5c6df60e01b81526001600160a01b03909116906393c5c6df90610dc990339087908790600401612df6565b600060405180830381600087803b158015610de357600080fd5b505af1158015610df7573d6000803e3d6000fd5b5060019695505050505050565b610e0e8282611e6c565b6000828152600160205260409020610cd09082611ee6565b3360008181526003602090815260408083206001600160a01b03871684529091528120549091610a80918590610c0f908690612f31565b610e877f65d7a28e3265b37a6474929f336521b332c1681b933f6cb9f3376673440d862a33611220565b610ef95760405162461bcd60e51b815260206004820152603960248201527f45524332305072657365744d696e7465725061757365723a206d75737420686160448201527f76652070617573657220726f6c6520746f20756e70617573650000000000000060648201526084016108c2565b610f01611efb565b565b610f2d7f9f2df0fed2c77648de5860a4cc508cd0818c85b8b8a1ab4ceeef8d981c8956a633611220565b610f985760405162461bcd60e51b815260206004820152603660248201527f45524332305072657365744d696e7465725061757365723a206d7573742068616044820152751d99481b5a5b9d195c881c9bdb19481d1bc81b5a5b9d60521b60648201526084016108c2565b610fa28282611adc565b5050565b610fb03382611bc7565b50565b600d8054610fc090613010565b80601f0160208091040260200160405190810160405280929190818152602001828054610fec90613010565b80156110395780601f1061100e57610100808354040283529160200191611039565b820191906000526020600020905b81548152906001019060200180831161101c57829003601f168201915b505050505081565b600e8054610fc090613010565b600061105a8333610716565b9050818110156110b85760405162461bcd60e51b8152602060048201526024808201527f45524332303a206275726e20616d6f756e74206578636565647320616c6c6f77604482015263616e636560e01b60648201526084016108c2565b6110c58333848403611916565b610cd08383611bc7565b600a546012546013546040516315e48d3960e01b81526004810192909252602482015260009182916001600160a01b03909116906315e48d3990604401604080518083038186803b15801561112357600080fd5b505afa158015611137573d6000803e3d6000fd5b505050506040513d601f19601f8201168201806040525081019061115b9190612c5f565b90939092509050565b61118e7f65d7a28e3265b37a6474929f336521b332c1681b933f6cb9f3376673440d862a33611220565b6112005760405162461bcd60e51b815260206004820152603760248201527f45524332305072657365744d696e7465725061757365723a206d75737420686160448201527f76652070617573657220726f6c6520746f20706175736500000000000000000060648201526084016108c2565b610f01611f8e565b6000828152600160205260408120610ca79083612009565b6000918252602082815260408084206001600160a01b0393909316845291905290205460ff1690565b601154600090600160a01b900460ff16151560011461127a5760405162461bcd60e51b81526004016108c290612ea5565b600a54604051630fc78b4360e41b81523360048201526001600160a01b038581166024830152604482018590529091169063fc78b43090606401602060405180830381600087803b1580156112ce57600080fd5b505af11580156112e2573d6000803e3d6000fd5b505050506040513d601f19601f82011682018060405250810190610ca79190612c44565b6060600680546107ca90613010565b3360009081526003602090815260408083206001600160a01b0386168452909152812054828110156113975760405162461bcd60e51b815260206004820152602560248201527f45524332303a2064656372656173656420616c6c6f77616e63652062656c6f77604482015264207a65726f60d81b60648201526084016108c2565b6113a43385858403611916565b5060019392505050565b601154600090600160a01b900460ff1615156001146113df5760405162461bcd60e51b81526004016108c290612ea5565b610a80338484612015565b600a54601054604051631885493960e01b815260048101919091526000916001600160a01b03169063188549399060240160206040518083038186803b15801561143357600080fd5b505afa158015611447573d6000803e3d6000fd5b505050506040513d601f19601f8201168201806040525081019061146b9190612d11565b905090565b60008181526001602052604081206107b5906121ee565b60005b33600090815260086020526040902054811015610fb0573360009081526008602052604081208054839081106114c2576114c261308c565b9060005260206000209060040201604051806080016040529081600082015481526020016001820154815260200160028201548152602001600382015481525050905061151281600001516121f8565b508061151d81613045565b91505061148a565b610e0e82826123c4565b600f818154811061153f57600080fd5b6000918252602090912001546001600160a01b0316905081565b6010818154811061156957600080fd5b906000526020600020016000915090508054610fc090613010565b60105460609060009067ffffffffffffffff8111156115a5576115a56130a2565b6040519080825280602002602001820160405280156115ce578160200160208202803683370190505b50905060005b60105481101561168957600a54604051634117ed4960e01b8152600481018390526001600160a01b0390911690634117ed499060240160206040518083038186803b15801561162257600080fd5b505afa158015611636573d6000803e3d6000fd5b505050506040513d601f19601f8201168201806040525081019061165a9190612d11565b82828151811061166c5761166c61308c565b60209081029190910101528061168181613045565b9150506115d4565b50919050565b610fa282826123ea565b6000610ca7836001600160a01b03841661246e565b6000828152602081905260409020600101546116ca81336124bd565b610cd083836123ea565b610cd083838361187b565b606060006116ee836002612f6b565b6116f9906002612f31565b67ffffffffffffffff811115611711576117116130a2565b6040519080825280601f01601f19166020018201604052801561173b576020820181803683370190505b509050600360fc1b816000815181106117565761175661308c565b60200101906001600160f81b031916908160001a905350600f60fb1b816001815181106117855761178561308c565b60200101906001600160f81b031916908160001a90535060006117a9846002612f6b565b6117b4906001612f31565b90505b600181111561182c576f181899199a1a9b1b9c1cb0b131b232b360811b85600f16601081106117e8576117e861308c565b1a60f81b8282815181106117fe576117fe61308c565b60200101906001600160f81b031916908160001a90535060049490941c9361182581612ff9565b90506117b7565b508315610ca75760405162461bcd60e51b815260206004820181905260248201527f537472696e67733a20686578206c656e67746820696e73756666696369656e7460448201526064016108c2565b60075460ff1615610cd05760405162461bcd60e51b815260206004820152602a60248201527f45524332305061757361626c653a20746f6b656e207472616e736665722077686044820152691a5b19481c185d5cd95960b21b60648201526084016108c2565b60006001600160e01b03198216637965db0b60e01b14806107b557506301ffc9a760e01b6001600160e01b03198316146107b5565b6001600160a01b0383166119785760405162461bcd60e51b8152602060048201526024808201527f45524332303a20617070726f76652066726f6d20746865207a65726f206164646044820152637265737360e01b60648201526084016108c2565b6001600160a01b0382166119d95760405162461bcd60e51b815260206004820152602260248201527f45524332303a20617070726f766520746f20746865207a65726f206164647265604482015261737360f01b60648201526084016108c2565b6001600160a01b0383811660008181526003602090815260408083209487168084529482529182902085905590518481527f8c5be1e5ebec7d5bd14f71427d1e84f3dd0314c0f7b2291e5b200ac8c7c3b925910160405180910390a3505050565b6000816060015160001415611a5157506000919050565b600082604001518360600151611a679190612fb6565b90506000611a7a6301e1853e6003612f8a565b63ffffffff169050808211611a8f5781611a91565b805b915060006002611aa58463064bc61f612f6b565b611aaf9190612f6b565b9050662386f26fc10000818660200151611ac99190612f6b565b611ad39190612f49565b95945050505050565b6001600160a01b038216611b325760405162461bcd60e51b815260206004820152601f60248201527f45524332303a206d696e7420746f20746865207a65726f20616464726573730060448201526064016108c2565b611b3e60008383612521565b8060046000828254611b509190612f31565b90915550506001600160a01b03821660009081526002602052604081208054839290611b7d908490612f31565b90915550506040518181526001600160a01b038316906000907fddf252ad1be2c89b69c2b068fc378daa952ba7f163c4a11628f55a4df523b3ef9060200160405180910390a35050565b6001600160a01b038216611c275760405162461bcd60e51b815260206004820152602160248201527f45524332303a206275726e2066726f6d20746865207a65726f206164647265736044820152607360f81b60648201526084016108c2565b611c3382600083612521565b6001600160a01b03821660009081526002602052604090205481811015611ca75760405162461bcd60e51b815260206004820152602260248201527f45524332303a206275726e20616d6f756e7420657863656564732062616c616e604482015261636560f01b60648201526084016108c2565b6001600160a01b0383166000908152600260205260408120838303905560048054849290611cd6908490612fb6565b90915550506040518281526000906001600160a01b038516907fddf252ad1be2c89b69c2b068fc378daa952ba7f163c4a11628f55a4df523b3ef9060200160405180910390a3505050565b6040516001600160a01b038316602482015260448101829052610cd090849063a9059cbb60e01b906064015b60408051601f198184030181529190526020810180516001600160e01b03166001600160e01b03199093169290921790915261252c565b6000611d91848484612015565b6001600160a01b038416600090815260036020908152604080832033845290915290205482811015611e165760405162461bcd60e51b815260206004820152602860248201527f45524332303a207472616e7366657220616d6f756e74206578636565647320616044820152676c6c6f77616e636560c01b60648201526084016108c2565b611e238533858403611916565b506001949350505050565b6040516001600160a01b0380851660248301528316604482015260648101829052611e669085906323b872dd60e01b90608401611d4d565b50505050565b6001600160a01b0381163314611edc5760405162461bcd60e51b815260206004820152602f60248201527f416363657373436f6e74726f6c3a2063616e206f6e6c792072656e6f756e636560448201526e103937b632b9903337b91039b2b63360891b60648201526084016108c2565b610fa282826125fe565b6000610ca7836001600160a01b038416612663565b60075460ff16611f445760405162461bcd60e51b815260206004820152601460248201527314185d5cd8589b194e881b9bdd081c185d5cd95960621b60448201526064016108c2565b6007805460ff191690557f5db9ee0a495bf2e6ff9c91a7834c1ba4fdd244a5e8aa4e537bd38aeae4b073aa335b6040516001600160a01b03909116815260200160405180910390a1565b60075460ff1615611fd45760405162461bcd60e51b815260206004820152601060248201526f14185d5cd8589b194e881c185d5cd95960821b60448201526064016108c2565b6007805460ff191660011790557f62e78cea01bee320cd4e420270b5ea74000d11b0c9f74754ebdbfc544b05a258611f713390565b6000610ca78383612756565b6001600160a01b0383166120795760405162461bcd60e51b815260206004820152602560248201527f45524332303a207472616e736665722066726f6d20746865207a65726f206164604482015264647265737360d81b60648201526084016108c2565b6001600160a01b0382166120db5760405162461bcd60e51b815260206004820152602360248201527f45524332303a207472616e7366657220746f20746865207a65726f206164647260448201526265737360e81b60648201526084016108c2565b6120e6838383612521565b6001600160a01b0383166000908152600260205260409020548181101561215e5760405162461bcd60e51b815260206004820152602660248201527f45524332303a207472616e7366657220616d6f756e7420657863656564732062604482015265616c616e636560d01b60648201526084016108c2565b6001600160a01b03808516600090815260026020526040808220858503905591851681529081208054849290612195908490612f31565b92505081905550826001600160a01b0316846001600160a01b03167fddf252ad1be2c89b69c2b068fc378daa952ba7f163c4a11628f55a4df523b3ef846040516121e191815260200190565b60405180910390a3611e66565b60006107b5825490565b3360009081526008602052604081208054839081106122195761221961308c565b90600052602060002090600402016040518060800160405290816000820154815260200160018201548152602001600282015481526020016003820154815250509050428160600151106122af5760405162461bcd60e51b815260206004820152601b60248201527f4c6f636b696e6720706572696f64206e6f742066696e6973686564000000000060448201526064016108c2565b336000908152600260205260408120546122cd908360200151612780565b90506122d93382611bc7565b602082015160405163a9059cbb60e01b815233600482015260248101919091527f00000000000000000000000000000000000000000000000000000000000000006001600160a01b03169063a9059cbb90604401602060405180830381600087803b15801561234757600080fd5b505af115801561235b573d6000803e3d6000fd5b505050506040513d601f19601f8201168201806040525081019061237f9190612c44565b50600a546020838101513360008181526003845260408082206001600160a01b039096168083529590945292909220546123bb93919003611916565b610cd083612797565b6000828152602081905260409020600101546123e081336124bd565b610cd083836125fe565b6123f48282611220565b610fa2576000828152602081815260408083206001600160a01b03851684529091529020805460ff1916600117905561242a3390565b6001600160a01b0316816001600160a01b0316837f2f8788117e7eff1d82e926ec794901d17c78024a50270940304540a733656f0d60405160405180910390a45050565b60008181526001830160205260408120546124b5575081546001818101845560008481526020808220909301849055845484825282860190935260409020919091556107b5565b5060006107b5565b6124c78282611220565b610fa2576124df816001600160a01b031660146116df565b6124ea8360206116df565b6040516020016124fb929190612d81565b60408051601f198184030181529082905262461bcd60e51b82526108c291600401612e72565b610cd08383836116d4565b6000612581826040518060400160405280602081526020017f5361666545524332303a206c6f772d6c6576656c2063616c6c206661696c6564815250856001600160a01b03166129279092919063ffffffff16565b805190915015610cd0578080602001905181019061259f9190612c44565b610cd05760405162461bcd60e51b815260206004820152602a60248201527f5361666545524332303a204552433230206f7065726174696f6e20646964206e6044820152691bdd081cdd58d8d9595960b21b60648201526084016108c2565b6126088282611220565b15610fa2576000828152602081815260408083206001600160a01b0385168085529252808320805460ff1916905551339285917ff6391f5c32d9c69d2a47ea670b442974b53935d1edc7fd64eb21e047a839171b9190a45050565b6000818152600183016020526040812054801561274c576000612687600183612fb6565b855490915060009061269b90600190612fb6565b90508181146127005760008660000182815481106126bb576126bb61308c565b90600052602060002001549050808760000184815481106126de576126de61308c565b6000918252602080832090910192909255918252600188019052604090208390555b855486908061271157612711613076565b6001900381819060005260206000200160009055905585600101600086815260200190815260200160002060009055600193505050506107b5565b60009150506107b5565b600082600001828154811061276d5761276d61308c565b9060005260206000200154905092915050565b6000818311156127905781610ca7565b5090919050565b3360009081526008602052604090205481106127b05750565b805b336000908152600860205260409020546127ce90600190612fb6565b811015612887573360009081526008602052604090206127ef826001612f31565b815481106127ff576127ff61308c565b906000526020600020906004020160086000336001600160a01b03166001600160a01b0316815260200190815260200160002082815481106128435761284361308c565b60009182526020909120825460049092020190815560018083015490820155600280830154908201556003918201549101558061287f81613045565b9150506127b2565b5033600090815260086020526040902080546128a590600190612fb6565b815481106128b5576128b561308c565b600091825260208083206004909202909101828155600181018390556002810183905560030182905533825260089052604090208054806128f8576128f8613076565b600082815260208120600460001990930192830201818155600181018290556002810182905560030155905550565b6060610ca4848460008585843b6129805760405162461bcd60e51b815260206004820152601d60248201527f416464726573733a2063616c6c20746f206e6f6e2d636f6e747261637400000060448201526064016108c2565b600080866001600160a01b0316858760405161299c9190612d65565b60006040518083038185875af1925050503d80600081146129d9576040519150601f19603f3d011682016040523d82523d6000602084013e6129de565b606091505b50915091506129ee8282866129f9565b979650505050505050565b60608315612a08575081610ca7565b825115612a185782518084602001fd5b8160405162461bcd60e51b81526004016108c29190612e72565b80356001600160a01b0381168114612a4957600080fd5b919050565b600082601f830112612a5f57600080fd5b81356020612a74612a6f83612f0d565b612edc565b80838252828201915082860187848660051b8901011115612a9457600080fd5b60005b85811015612ab357813584529284019290840190600101612a97565b5090979650505050505050565b80518015158114612a4957600080fd5b600060208284031215612ae257600080fd5b610ca782612a32565b60008060408385031215612afe57600080fd5b612b0783612a32565b9150612b1560208401612a32565b90509250929050565b600080600060608486031215612b3357600080fd5b612b3c84612a32565b9250612b4a60208501612a32565b9150604084013590509250925092565b60008060408385031215612b6d57600080fd5b612b7683612a32565b946020939093013593505050565b60008060408385031215612b9757600080fd5b823567ffffffffffffffff80821115612baf57600080fd5b818501915085601f830112612bc357600080fd5b81356020612bd3612a6f83612f0d565b8083825282820191508286018a848660051b8901011115612bf357600080fd5b600096505b84871015612c16578035835260019690960195918301918301612bf8565b5096505086013592505080821115612c2d57600080fd5b50612c3a85828601612a4e565b9150509250929050565b600060208284031215612c5657600080fd5b610ca782612ac0565b60008060408385031215612c7257600080fd5b612c7b83612ac0565b9150612b1560208401612ac0565b600060208284031215612c9b57600080fd5b5035919050565b60008060408385031215612cb557600080fd5b82359150612b1560208401612a32565b60008060408385031215612cd857600080fd5b50508035926020909101359150565b600060208284031215612cf957600080fd5b81356001600160e01b031981168114610ca757600080fd5b600060208284031215612d2357600080fd5b5051919050565b600081518084526020808501945080840160005b83811015612d5a57815187529582019590820190600101612d3e565b509495945050505050565b60008251612d77818460208701612fcd565b9190910192915050565b7f416363657373436f6e74726f6c3a206163636f756e7420000000000000000000815260008351612db9816017850160208801612fcd565b7001034b99036b4b9b9b4b733903937b6329607d1b6017918401918201528351612dea816028840160208801612fcd565b01602801949350505050565b6001600160a01b038416815260606020808301829052845191830182905260009185820191906080850190845b81811015612e3f57845183529383019391830191600101612e23565b50508481036040860152612e538187612d2a565b98975050505050505050565b602081526000610ca76020830184612d2a565b6020815260008251806020840152612e91816040850160208701612fcd565b601f01601f19169190910160400192915050565b6020808252601e908201527f566f74652064656c65676174696f6e206973206e6f7420616c6c6f7765640000604082015260600190565b604051601f8201601f1916810167ffffffffffffffff81118282101715612f0557612f056130a2565b604052919050565b600067ffffffffffffffff821115612f2757612f276130a2565b5060051b60200190565b60008219821115612f4457612f44613060565b500190565b600082612f6657634e487b7160e01b600052601260045260246000fd5b500490565b6000816000190483118215151615612f8557612f85613060565b500290565b600063ffffffff80831681851681830481118215151615612fad57612fad613060565b02949350505050565b600082821015612fc857612fc8613060565b500390565b60005b83811015612fe8578181015183820152602001612fd0565b83811115611e665750506000910152565b60008161300857613008613060565b506000190190565b600181811c9082168061302457607f821691505b6020821081141561168957634e487b7160e01b600052602260045260246000fd5b600060001982141561305957613059613060565b5060010190565b634e487b7160e01b600052601160045260246000fd5b634e487b7160e01b600052603160045260246000fd5b634e487b7160e01b600052603260045260246000fd5b634e487b7160e01b600052604160045260246000fdfea264697066735822122088d9a4cf39e656f121fdd15667d7e05cae7122c50722248a5ae59c99617ce95964736f6c6343000806003365d7a28e3265b37a6474929f336521b332c1681b933f6cb9f3376673440d862a9f2df0fed2c77648de5860a4cc508cd0818c85b8b8a1ab4ceeef8d981c8956a6a2646970667358221220f43e47f3063e9cad39efdad0a9ee8d5dfb674a5ed5defae9f90bbdcae3935de164736f6c63430008060033",
  "immutableReferences": {},
  "source": "// SPDX-License-Identifier: MIT\r\npragma solidity ^0.8.0;\r\n\r\nimport '../interfaces/IVotrPollFactory.sol';\r\nimport '../poll/VotrPoll.sol';\r\n\r\ncontract VotrPollFactory is IVotrPollFactory {\r\n  uint256 public numberOfPolls;\r\n  address[] public allPolls;\r\n  mapping(address => bool) public doesPollExist;\r\n\r\n  function createPoll(\r\n    address _pollType,\r\n    TokenSettings memory _tokenSettings,\r\n    PollSettings memory _pollSettings,\r\n    string[] memory _choices,\r\n    Voter[] memory _voters\r\n  ) external override returns (address) {\r\n    VotrPoll poll = new VotrPoll(\r\n      msg.sender,\r\n      address(this),\r\n      _pollType,\r\n      _tokenSettings,\r\n      _pollSettings,\r\n      _choices,\r\n      _voters\r\n    );\r\n    return _createPoll(msg.sender, address(poll));\r\n  }\r\n\r\n  modifier callableOnlyByVotrPoll() {\r\n    require(doesPollExist[msg.sender] == true, 'Callable only by Votr polls');\r\n    _;\r\n  }\r\n\r\n  function emitVotedEvent(\r\n    address who,\r\n    uint256[] memory choices,\r\n    int256[] memory votesAmount\r\n  ) external override callableOnlyByVotrPoll {\r\n    emit Voted(msg.sender, who, choices, votesAmount);\r\n  }\r\n\r\n  function _createPoll(address owner, address poll) internal returns (address) {\r\n    emit PollCreated(owner, poll);\r\n    numberOfPolls++;\r\n    allPolls.push(poll);\r\n    doesPollExist[poll] = true;\r\n    return poll;\r\n  }\r\n}\r\n",
  "sourcePath": "/home/mrkampla/Votr/contracts/contracts/factory/VotrPollFactory.sol",
  "compiler": {
    "name": "solc",
    "version": "0.8.6+commit.11564f7e.Emscripten.clang"
  },
  "schemaVersion": "3.4.1",
  "updatedAt": "2021-07-13T19:07:38.064Z",
  "networkType": "ethereum",
  "devdoc": {
    "kind": "dev",
    "methods": {},
    "version": 1
  },
  "userdoc": {
    "kind": "user",
    "methods": {},
    "version": 1
  }
}