{
  "contractName": "VotrPollFactory",
  "abi": [
    {
      "anonymous": false,
      "inputs": [
        {
          "indexed": true,
          "internalType": "address",
          "name": "owner",
          "type": "address"
        },
        {
          "indexed": true,
          "internalType": "address",
          "name": "pollType",
          "type": "address"
        }
      ],
      "name": "PollCreated",
      "type": "event"
    },
    {
      "inputs": [],
      "name": "numberOfPolls",
      "outputs": [
        {
          "internalType": "uint256",
          "name": "",
          "type": "uint256"
        }
      ],
      "stateMutability": "view",
      "type": "function",
      "constant": true
    },
    {
      "inputs": [
        {
          "internalType": "enum VotrPollFactory.PollType",
          "name": "_type",
          "type": "uint8"
        },
        {
          "internalType": "string",
          "name": "_title",
          "type": "string"
        },
        {
          "internalType": "string",
          "name": "_description",
          "type": "string"
        },
        {
          "internalType": "bytes32[]",
          "name": "_choices",
          "type": "bytes32[]"
        },
        {
          "internalType": "address[]",
          "name": "_voters",
          "type": "address[]"
        },
        {
          "internalType": "uint256[]",
          "name": "_allowedVotes",
          "type": "uint256[]"
        },
        {
          "internalType": "uint256",
          "name": "_quorum",
          "type": "uint256"
        },
        {
          "internalType": "uint256",
          "name": "_endDate",
          "type": "uint256"
        },
        {
          "internalType": "bool",
          "name": "_allowVoteDelegation",
          "type": "bool"
        }
      ],
      "name": "createPoll",
      "outputs": [
        {
          "internalType": "address",
          "name": "",
          "type": "address"
        }
      ],
      "stateMutability": "nonpayable",
      "type": "function"
    }
  ],
  "bytecode": "0x608060405234801561001057600080fd5b50614431806100206000396000f3fe60806040523480156200001157600080fd5b50600436106200003a5760003560e01c8063a84fb96d146200003f578063d60ae8871462000334575b600080fd5b6200031860048036036101208110156200005857600080fd5b60ff8235169190810190604081016020820135600160201b8111156200007d57600080fd5b8201836020820111156200009057600080fd5b803590602001918460018302840111600160201b83111715620000b257600080fd5b91908080601f0160208091040260200160405190810160405280939291908181526020018383808284376000920191909152509295949360208101935035915050600160201b8111156200010557600080fd5b8201836020820111156200011857600080fd5b803590602001918460018302840111600160201b831117156200013a57600080fd5b91908080601f0160208091040260200160405190810160405280939291908181526020018383808284376000920191909152509295949360208101935035915050600160201b8111156200018d57600080fd5b820183602082011115620001a057600080fd5b803590602001918460208302840111600160201b83111715620001c257600080fd5b9190808060200260200160405190810160405280939291908181526020018383602002808284376000920191909152509295949360208101935035915050600160201b8111156200021257600080fd5b8201836020820111156200022557600080fd5b803590602001918460208302840111600160201b831117156200024757600080fd5b9190808060200260200160405190810160405280939291908181526020018383602002808284376000920191909152509295949360208101935035915050600160201b8111156200029757600080fd5b820183602082011115620002aa57600080fd5b803590602001918460208302840111600160201b83111715620002cc57600080fd5b9190808060200260200160405190810160405280939291908181526020018383602002808284376000920191909152509295505082359350505060208101359060400135151562000350565b604080516001600160a01b039092168252519081900360200190f35b6200033e6200094c565b60408051918252519081900360200190f35b600080808b60028111156200036157fe5b14156200053357338a8a8a8a8989896040516200037e90620009a3565b80896001600160a01b03166001600160a01b03168152602001806020018060200180602001806020018881526020018781526020018615151515815260200185810385528c818151815260200191508051906020019080838360005b83811015620003f4578181015183820152602001620003da565b50505050905090810190601f168015620004225780820380516001836020036101000a031916815260200191505b5085810384528b5181528b516020918201918d019080838360005b83811015620004575781810151838201526020016200043d565b50505050905090810190601f168015620004855780820380516001836020036101000a031916815260200191505b5085810383528a5181528a51602091820191808d01910280838360005b83811015620004bc578181015183820152602001620004a2565b50505050905001858103825289818151815260200191508051906020019060200280838360005b83811015620004fd578181015183820152602001620004e3565b505050509050019c50505050505050505050505050604051809103906000f0801580156200052f573d6000803e3d6000fd5b5090505b60018b60028111156200054257fe5b14156200075c57338a8a8a8a8a8a8a8a6040516200056090620009b1565b808a6001600160a01b03166001600160a01b0316815260200180602001806020018060200180602001806020018981526020018881526020018715151515815260200186810386528e818151815260200191508051906020019080838360005b83811015620005da578181015183820152602001620005c0565b50505050905090810190601f168015620006085780820380516001836020036101000a031916815260200191505b5086810385528d5181528d516020918201918f019080838360005b838110156200063d57818101518382015260200162000623565b50505050905090810190601f1680156200066b5780820380516001836020036101000a031916815260200191505b5086810384528c5181528c51602091820191808f01910280838360005b83811015620006a257818101518382015260200162000688565b5050505090500186810383528b818151815260200191508051906020019060200280838360005b83811015620006e3578181015183820152602001620006c9565b5050505090500186810382528a818151815260200191508051906020019060200280838360005b83811015620007245781810151838201526020016200070a565b505050509050019e505050505050505050505050505050604051809103906000f08015801562000758573d6000803e3d6000fd5b5090505b60028b60028111156200076b57fe5b14156200093157338a8a8a8a89896040516200078790620009bf565b80886001600160a01b03166001600160a01b031681526020018060200180602001806020018060200187815260200186815260200185810385528b818151815260200191508051906020019080838360005b83811015620007f3578181015183820152602001620007d9565b50505050905090810190601f168015620008215780820380516001836020036101000a031916815260200191505b5085810384528a5181528a516020918201918c019080838360005b83811015620008565781810151838201526020016200083c565b50505050905090810190601f168015620008845780820380516001836020036101000a031916815260200191505b508581038352895181528951602091820191808c01910280838360005b83811015620008bb578181015183820152602001620008a1565b50505050905001858103825288818151815260200191508051906020019060200280838360005b83811015620008fc578181015183820152602001620008e2565b505050509050019b505050505050505050505050604051809103906000f0801580156200092d573d6000803e3d6000fd5b5090505b6200093d338262000952565b9b9a5050505050505050505050565b60005481565b6000816001600160a01b0316836001600160a01b03167f5b850d927499bc55df3941f7c4ae97ab6fce34a21f4df0ab30694f24353445b260405160405180910390a350600080546001019055919050565b6112af80620009ce83390190565b61129c8062001c7d83390190565b6114e38062002f198339019056fe60806040523480156200001157600080fd5b50604051620012af380380620012af83398181016040526101008110156200003857600080fd5b8151602083018051604051929492938301929190846401000000008211156200006057600080fd5b9083019060208201858111156200007657600080fd5b82516401000000008111828201881017156200009157600080fd5b82525081516020918201929091019080838360005b83811015620000c0578181015183820152602001620000a6565b50505050905090810190601f168015620000ee5780820380516001836020036101000a031916815260200191505b50604052602001805160405193929190846401000000008211156200011257600080fd5b9083019060208201858111156200012857600080fd5b82516401000000008111828201881017156200014357600080fd5b82525081516020918201929091019080838360005b838110156200017257818101518382015260200162000158565b50505050905090810190601f168015620001a05780820380516001836020036101000a031916815260200191505b5060405260200180516040519392919084640100000000821115620001c457600080fd5b908301906020820185811115620001da57600080fd5b8251866020820283011164010000000082111715620001f857600080fd5b82525081516020918201928201910280838360005b83811015620002275781810151838201526020016200020d565b50505050905001604052602001805160405193929190846401000000008211156200025157600080fd5b9083019060208201858111156200026757600080fd5b82518660208202830111640100000000821117156200028557600080fd5b82525081516020918201928201910280838360005b83811015620002b45781810151838201526020016200029a565b5050505091909101604090815260208301519083015160609093015190945091925088905087878787620002f1816001600160e01b036200057f16565b88888842821162000349576040805162461bcd60e51b815260206004820152601f60248201527f54686520656e6420646174652063616e6e6f7420626520696e20706173742e00604482015290519081900360640190fd5b87516200035e9060009060208b0190620005ff565b508651620003749060019060208a0190620005ff565b5084516200038a90600990602088019062000684565b506004829055600280546001600160a01b0319166001600160a01b038b1617905560038390556005805460ff191682151517905560005b86518110156200046b576000878281518110620003da57fe5b60209081029190910181015160408051808201909152908152600091810182815260088054600180820183559190945291517ff3f7a9fe364faab93b216da50a3214154f22a0a2b415b23a84c8169e8b636ee3600290940293840155517ff3f7a9fe364faab93b216da50a3214154f22a0a2b415b23a84c8169e8b636ee490920191909155919091019050620003c1565b5060005b855181101562000519578481815181106200048657fe5b6020026020010151600a60008884815181106200049f57fe5b60200260200101516001600160a01b03166001600160a01b03168152602001908152602001600020819055506001600b6000888481518110620004de57fe5b6020908102919091018101516001600160a01b03168252810191909152604001600020805460ff19169115159190911790556001016200046f565b505050505050505050506040518060400160405280601881526020017f46697273742d706173742d7468652d706f737420706f6c6c00000000000000008152506006908051906020019062000570929190620005ff565b50505050505050505062000731565b60608082516001600160401b03811180156200059a57600080fd5b50604051908082528060200260200182016040528015620005c5578160200160208202803683370190505b50905060005b8351811015620005f8576001828281518110620005e457fe5b6020908102919091010152600101620005cb565b5092915050565b828054600181600116156101000203166002900490600052602060002090601f016020900481019282601f106200064257805160ff191683800117855562000672565b8280016001018555821562000672579182015b828111156200067257825182559160200191906001019062000655565b5062000680929150620006ea565b5090565b828054828255906000526020600020908101928215620006dc579160200282015b82811115620006dc57825182546001600160a01b0319166001600160a01b03909116178255602090920191600190910190620006a5565b50620006809291506200070a565b6200070791905b80821115620006805760008155600101620006f1565b90565b6200070791905b80821115620006805780546001600160a01b031916815560010162000711565b610b6e80620007416000396000f3fe608060405234801561001057600080fd5b50600436106101165760003560e01c80637b352962116100a2578063c24a0f8b11610071578063c24a0f8b14610316578063ce425c801461031e578063da58c7d914610326578063f596b4f014610343578063f6fd7fde1461034b57610116565b80637b3529621461029b57806387f7b975146102be578063926f7327146102e2578063ad38867e1461030e57610116565b80634567d74c116100e95780634567d74c146101f45780634a79d50c1461021a5780634fefbc34146102225780635e44daf3146102485780637284e4161461029357610116565b806309eef43e1461011b5780631703a01814610155578063237637a81461016f5780633f2b96e6146101ec575b600080fd5b6101416004803603602081101561013157600080fd5b50356001600160a01b0316610381565b604080519115158252519081900360200190f35b61015d610396565b60408051918252519081900360200190f35b61017761039c565b6040805160208082528351818301528351919283929083019185019080838360005b838110156101b1578181015183820152602001610199565b50505050905090810190601f1680156101de5780820380516001836020036101000a031916815260200191505b509250505060405180910390f35b61014161042a565b6101416004803603602081101561020a57600080fd5b50356001600160a01b0316610433565b610177610448565b61015d6004803603602081101561023857600080fd5b50356001600160a01b03166104a3565b61026b6004803603604081101561025e57600080fd5b50803590602001356104b5565b604080516001600160a01b039094168452602084019290925282820152519081900360600190f35b6101776106a8565b6102a3610702565b60408051921515835290151560208301528051918290030190f35b6102c66107b9565b604080516001600160a01b039092168252519081900360200190f35b610141600480360360408110156102f857600080fd5b506001600160a01b0381351690602001356107c8565b61015d610993565b61015d6109da565b61015d6109e0565b6102c66004803603602081101561033c57600080fd5b50356109e6565b61015d610a0d565b6103686004803603602081101561036157600080fd5b5035610a13565b6040805192835260208301919091528051918290030190f35b60076020526000908152604090205460ff1681565b60035481565b6006805460408051602060026001851615610100026000190190941693909304601f810184900484028201840190925281815292918301828280156104225780601f106103f757610100808354040283529160200191610422565b820191906000526020600020905b81548152906001019060200180831161040557829003601f168201915b505050505081565b60055460ff1681565b600b6020526000908152604090205460ff1681565b6000805460408051602060026001851615610100026000190190941693909304601f810184900484028201840190925281815292918301828280156104225780601f106103f757610100808354040283529160200191610422565b600a6020526000908152604090205481565b6000806000806104c3610702565b5090508015610519576040805162461bcd60e51b815260206004820152601b60248201527f54686520706f6c6c2068617320616c726561647920656e6465642e0000000000604482015290519081900360640190fd5b60085486106105595760405162461bcd60e51b815260040180806020018281038252602b815260200180610ae4602b913960400191505060405180910390fd5b336000908152600a60205260409020548513156105a75760405162461bcd60e51b8152600401808060200182810382526021815260200180610aa26021913960400191505060405180910390fd5b600085136105e65760405162461bcd60e51b815260040180806020018281038252603e815260200180610a64603e913960400191505060405180910390fd5b336000908152600a602090815260408083208054899003905560079091529020805460ff19166001179055600880548691908890811061062257fe5b60009182526020918290206001600290920201018054909201909155604080518781529051889233927f1263a2295e53acd6ef8f655b8afc11fa0f2cf11925be7aa1757d741ef32a926c929081900390910190a333866008888154811061068557fe5b906000526020600020906002020160010154829250935093509350509250925092565b60018054604080516020600284861615610100026000190190941693909304601f810184900484028201840190925281815292918301828280156104225780601f106103f757610100808354040283529160200191610422565b60008080805b60095481101561076957600760006009838154811061072357fe5b60009182526020808320909101546001600160a01b0316835282019290925260400190205460ff16610756576000610759565b60015b60ff169190910190600101610708565b50801580159061077a575060095481145b1561078c5760018092509250506107b5565b6004546107a35760035460019350111590506107b5565b60045442101560035482101592509250505b9091565b6002546001600160a01b031681565b6000806107d3610702565b5090508015610829576040805162461bcd60e51b815260206004820152601b60248201527f54686520706f6c6c2068617320616c726561647920656e6465642e0000000000604482015290519081900360640190fd5b60055460ff1661086a5760405162461bcd60e51b815260040180806020018281038252602a815260200180610b0f602a913960400191505060405180910390fd5b336000908152600b602052604090205460ff166108b85760405162461bcd60e51b8152600401808060200182810382526021815260200180610ac36021913960400191505060405180910390fd5b336000908152600a60205260409020548311156109065760405162461bcd60e51b8152600401808060200182810382526021815260200180610aa26021913960400191505060405180910390fd5b6001600160a01b0384166000908152600b602052604090205460ff1661095d5760405162461bcd60e51b8152600401808060200182810382526025815260200180610a3f6025913960400191505060405180910390fd5b336000908152600a6020526040808220805486900390556001600160a01b03861682529020805484019055600191505092915050565b600080805b6008548110156109d45781600882815481106109b057fe5b90600052602060002090600202016001015413156109cc578091505b600101610998565b50905090565b60045481565b60085490565b600981815481106109f357fe5b6000918252602090912001546001600160a01b0316905081565b60095490565b60088181548110610a2057fe5b6000918252602090912060029091020180546001909101549091508256fe54686520726563697069656e74206973206e6f7420616c6c6f77656420746f20766f74652e596f752063616e6e6f742067697665206e65676174697665206e756d626572206f6620766f74657320696e20746869732074797065206f6620706f6c6c2e54686520766f7465722068617320696e73756666696369656e7420766f7465732e54686520766f746572206973206e6f7420616c6c6f77656420746f20766f74652e5468657265206973206e6f20737563682063616e6469646174652077697468207468697320696e6465782e566f74652064656c65676174696f6e2069732064697361626c656420666f72207468697320706f6c6c2ea264697066735822122074c39f2c53d2d587d1403647f2d69d05bd5810408e35f79eafac6f4f89d8bc9f64736f6c6343000608003360806040523480156200001157600080fd5b506040516200129c3803806200129c83398181016040526101208110156200003857600080fd5b8151602083018051604051929492938301929190846401000000008211156200006057600080fd5b9083019060208201858111156200007657600080fd5b82516401000000008111828201881017156200009157600080fd5b82525081516020918201929091019080838360005b83811015620000c0578181015183820152602001620000a6565b50505050905090810190601f168015620000ee5780820380516001836020036101000a031916815260200191505b50604052602001805160405193929190846401000000008211156200011257600080fd5b9083019060208201858111156200012857600080fd5b82516401000000008111828201881017156200014357600080fd5b82525081516020918201929091019080838360005b838110156200017257818101518382015260200162000158565b50505050905090810190601f168015620001a05780820380516001836020036101000a031916815260200191505b5060405260200180516040519392919084640100000000821115620001c457600080fd5b908301906020820185811115620001da57600080fd5b8251866020820283011164010000000082111715620001f857600080fd5b82525081516020918201928201910280838360005b83811015620002275781810151838201526020016200020d565b50505050905001604052602001805160405193929190846401000000008211156200025157600080fd5b9083019060208201858111156200026757600080fd5b82518660208202830111640100000000821117156200028557600080fd5b82525081516020918201928201910280838360005b83811015620002b45781810151838201526020016200029a565b5050505090500160405260200180516040519392919084640100000000821115620002de57600080fd5b908301906020820185811115620002f457600080fd5b82518660208202830111640100000000821117156200031257600080fd5b82525081516020918201928201910280838360005b838110156200034157818101518382015260200162000327565b505050509190910160409081526020830151908301516060909301519094509192508990508888888888888888428211620003c3576040805162461bcd60e51b815260206004820152601f60248201527f54686520656e6420646174652063616e6e6f7420626520696e20706173742e00604482015290519081900360640190fd5b8751620003d89060009060208b0190620005ec565b508651620003ee9060019060208a0190620005ec565b5084516200040490600990602088019062000671565b506004829055600280546001600160a01b0319166001600160a01b038b1617905560038390556005805460ff191682151517905560005b8651811015620004e55760008782815181106200045457fe5b60209081029190910181015160408051808201909152908152600091810182815260088054600180820183559190945291517ff3f7a9fe364faab93b216da50a3214154f22a0a2b415b23a84c8169e8b636ee3600290940293840155517ff3f7a9fe364faab93b216da50a3214154f22a0a2b415b23a84c8169e8b636ee4909201919091559190910190506200043b565b5060005b855181101562000593578481815181106200050057fe5b6020026020010151600a60008884815181106200051957fe5b60200260200101516001600160a01b03166001600160a01b03168152602001908152602001600020819055506001600b60008884815181106200055857fe5b6020908102919091018101516001600160a01b03168252810191909152604001600020805460ff1916911515919091179055600101620004e9565b505050505050505050506040518060400160405280600f81526020016e10dd5b5d5b185d1a5d99481c1bdb1b608a1b81525060069080519060200190620005dc929190620005ec565b505050505050505050506200071e565b828054600181600116156101000203166002900490600052602060002090601f016020900481019282601f106200062f57805160ff19168380011785556200065f565b828001600101855582156200065f579182015b828111156200065f57825182559160200191906001019062000642565b506200066d929150620006d7565b5090565b828054828255906000526020600020908101928215620006c9579160200282015b82811115620006c957825182546001600160a01b0319166001600160a01b0390911617825560209092019160019091019062000692565b506200066d929150620006f7565b620006f491905b808211156200066d5760008155600101620006de565b90565b620006f491905b808211156200066d5780546001600160a01b0319168155600101620006fe565b610b6e806200072e6000396000f3fe608060405234801561001057600080fd5b50600436106101165760003560e01c80637b352962116100a2578063c24a0f8b11610071578063c24a0f8b14610316578063ce425c801461031e578063da58c7d914610326578063f596b4f014610343578063f6fd7fde1461034b57610116565b80637b3529621461029b57806387f7b975146102be578063926f7327146102e2578063ad38867e1461030e57610116565b80634567d74c116100e95780634567d74c146101f45780634a79d50c1461021a5780634fefbc34146102225780635e44daf3146102485780637284e4161461029357610116565b806309eef43e1461011b5780631703a01814610155578063237637a81461016f5780633f2b96e6146101ec575b600080fd5b6101416004803603602081101561013157600080fd5b50356001600160a01b0316610381565b604080519115158252519081900360200190f35b61015d610396565b60408051918252519081900360200190f35b61017761039c565b6040805160208082528351818301528351919283929083019185019080838360005b838110156101b1578181015183820152602001610199565b50505050905090810190601f1680156101de5780820380516001836020036101000a031916815260200191505b509250505060405180910390f35b61014161042a565b6101416004803603602081101561020a57600080fd5b50356001600160a01b0316610433565b610177610448565b61015d6004803603602081101561023857600080fd5b50356001600160a01b03166104a3565b61026b6004803603604081101561025e57600080fd5b50803590602001356104b5565b604080516001600160a01b039094168452602084019290925282820152519081900360600190f35b6101776106a8565b6102a3610702565b60408051921515835290151560208301528051918290030190f35b6102c66107b9565b604080516001600160a01b039092168252519081900360200190f35b610141600480360360408110156102f857600080fd5b506001600160a01b0381351690602001356107c8565b61015d610993565b61015d6109da565b61015d6109e0565b6102c66004803603602081101561033c57600080fd5b50356109e6565b61015d610a0d565b6103686004803603602081101561036157600080fd5b5035610a13565b6040805192835260208301919091528051918290030190f35b60076020526000908152604090205460ff1681565b60035481565b6006805460408051602060026001851615610100026000190190941693909304601f810184900484028201840190925281815292918301828280156104225780601f106103f757610100808354040283529160200191610422565b820191906000526020600020905b81548152906001019060200180831161040557829003601f168201915b505050505081565b60055460ff1681565b600b6020526000908152604090205460ff1681565b6000805460408051602060026001851615610100026000190190941693909304601f810184900484028201840190925281815292918301828280156104225780601f106103f757610100808354040283529160200191610422565b600a6020526000908152604090205481565b6000806000806104c3610702565b5090508015610519576040805162461bcd60e51b815260206004820152601b60248201527f54686520706f6c6c2068617320616c726561647920656e6465642e0000000000604482015290519081900360640190fd5b60085486106105595760405162461bcd60e51b815260040180806020018281038252602b815260200180610ae4602b913960400191505060405180910390fd5b336000908152600a60205260409020548513156105a75760405162461bcd60e51b8152600401808060200182810382526021815260200180610aa26021913960400191505060405180910390fd5b600085136105e65760405162461bcd60e51b815260040180806020018281038252603e815260200180610a64603e913960400191505060405180910390fd5b336000908152600a602090815260408083208054899003905560079091529020805460ff19166001179055600880548691908890811061062257fe5b60009182526020918290206001600290920201018054909201909155604080518781529051889233927f1263a2295e53acd6ef8f655b8afc11fa0f2cf11925be7aa1757d741ef32a926c929081900390910190a333866008888154811061068557fe5b906000526020600020906002020160010154829250935093509350509250925092565b60018054604080516020600284861615610100026000190190941693909304601f810184900484028201840190925281815292918301828280156104225780601f106103f757610100808354040283529160200191610422565b60008080805b60095481101561076957600760006009838154811061072357fe5b60009182526020808320909101546001600160a01b0316835282019290925260400190205460ff16610756576000610759565b60015b60ff169190910190600101610708565b50801580159061077a575060095481145b1561078c5760018092509250506107b5565b6004546107a35760035460019350111590506107b5565b60045442101560035482101592509250505b9091565b6002546001600160a01b031681565b6000806107d3610702565b5090508015610829576040805162461bcd60e51b815260206004820152601b60248201527f54686520706f6c6c2068617320616c726561647920656e6465642e0000000000604482015290519081900360640190fd5b60055460ff1661086a5760405162461bcd60e51b815260040180806020018281038252602a815260200180610b0f602a913960400191505060405180910390fd5b336000908152600b602052604090205460ff166108b85760405162461bcd60e51b8152600401808060200182810382526021815260200180610ac36021913960400191505060405180910390fd5b336000908152600a60205260409020548311156109065760405162461bcd60e51b8152600401808060200182810382526021815260200180610aa26021913960400191505060405180910390fd5b6001600160a01b0384166000908152600b602052604090205460ff1661095d5760405162461bcd60e51b8152600401808060200182810382526025815260200180610a3f6025913960400191505060405180910390fd5b336000908152600a6020526040808220805486900390556001600160a01b03861682529020805484019055600191505092915050565b600080805b6008548110156109d45781600882815481106109b057fe5b90600052602060002090600202016001015413156109cc578091505b600101610998565b50905090565b60045481565b60085490565b600981815481106109f357fe5b6000918252602090912001546001600160a01b0316905081565b60095490565b60088181548110610a2057fe5b6000918252602090912060029091020180546001909101549091508256fe54686520726563697069656e74206973206e6f7420616c6c6f77656420746f20766f74652e596f752063616e6e6f742067697665206e65676174697665206e756d626572206f6620766f74657320696e20746869732074797065206f6620706f6c6c2e54686520766f7465722068617320696e73756666696369656e7420766f7465732e54686520766f746572206973206e6f7420616c6c6f77656420746f20766f74652e5468657265206973206e6f20737563682063616e6469646174652077697468207468697320696e6465782e566f74652064656c65676174696f6e2069732064697361626c656420666f72207468697320706f6c6c2ea264697066735822122058bcbeba4109c4a2b1e8921a6d4769f334053a6f67385c1d2d0624eb909389f864736f6c6343000608003360806040523480156200001157600080fd5b50604051620014e3380380620014e3833981810160405260e08110156200003757600080fd5b8151602083018051604051929492938301929190846401000000008211156200005f57600080fd5b9083019060208201858111156200007557600080fd5b82516401000000008111828201881017156200009057600080fd5b82525081516020918201929091019080838360005b83811015620000bf578181015183820152602001620000a5565b50505050905090810190601f168015620000ed5780820380516001836020036101000a031916815260200191505b50604052602001805160405193929190846401000000008211156200011157600080fd5b9083019060208201858111156200012757600080fd5b82516401000000008111828201881017156200014257600080fd5b82525081516020918201929091019080838360005b838110156200017157818101518382015260200162000157565b50505050905090810190601f1680156200019f5780820380516001836020036101000a031916815260200191505b5060405260200180516040519392919084640100000000821115620001c357600080fd5b908301906020820185811115620001d957600080fd5b8251866020820283011164010000000082111715620001f757600080fd5b82525081516020918201928201910280838360005b83811015620002265781810151838201526020016200020c565b50505050905001604052602001805160405193929190846401000000008211156200025057600080fd5b9083019060208201858111156200026657600080fd5b82518660208202830111640100000000821117156200028457600080fd5b82525081516020918201928201910280838360005b83811015620002b357818101518382015260200162000299565b5050505091909101604090815260208301519201518551929450925088918891508790879087906001600160401b0381118015620002f057600080fd5b506040519080825280602002602001820160405280156200031b578160200160208202803683370190505b508787600042821162000375576040805162461bcd60e51b815260206004820152601f60248201527f54686520656e6420646174652063616e6e6f7420626520696e20706173742e00604482015290519081900360640190fd5b87516200038a9060009060208b01906200059c565b508651620003a09060019060208a01906200059c565b508451620003b690600990602088019062000621565b506004829055600280546001600160a01b0319166001600160a01b038b1617905560038390556005805460ff191682151517905560005b8651811015620004975760008782815181106200040657fe5b60209081029190910181015160408051808201909152908152600091810182815260088054600180820183559190945291517ff3f7a9fe364faab93b216da50a3214154f22a0a2b415b23a84c8169e8b636ee3600290940293840155517ff3f7a9fe364faab93b216da50a3214154f22a0a2b415b23a84c8169e8b636ee490920191909155919091019050620003ed565b5060005b85518110156200054557848181518110620004b257fe5b6020026020010151600a6000888481518110620004cb57fe5b60200260200101516001600160a01b03166001600160a01b03168152602001908152602001600020819055506001600b60008884815181106200050a57fe5b6020908102919091018101516001600160a01b03168252810191909152604001600020805460ff19169115159190911790556001016200049b565b505050505050505050506040518060400160405280600f81526020016e115d985b1d585d1a5d99481c1bdb1b608a1b815250600690805190602001906200058e9291906200059c565b5050505050505050620006ce565b828054600181600116156101000203166002900490600052602060002090601f016020900481019282601f10620005df57805160ff19168380011785556200060f565b828001600101855582156200060f579182015b828111156200060f578251825591602001919060010190620005f2565b506200061d92915062000687565b5090565b82805482825590600052602060002090810192821562000679579160200282015b828111156200067957825182546001600160a01b0319166001600160a01b0390911617825560209092019160019091019062000642565b506200061d929150620006a7565b620006a491905b808211156200061d57600081556001016200068e565b90565b620006a491905b808211156200061d5780546001600160a01b0319168155600101620006ae565b610e0580620006de6000396000f3fe608060405234801561001057600080fd5b50600436106101215760003560e01c80637b352962116100ad578063ce425c8011610071578063ce425c8014610329578063da58c7d914610331578063e3272b6f1461034e578063f596b4f014610475578063f6fd7fde1461047d57610121565b80637b352962146102a657806387f7b975146102c9578063926f7327146102ed578063ad38867e14610319578063c24a0f8b1461032157610121565b80634567d74c116100f45780634567d74c146101ff5780634a79d50c146102255780634fefbc341461022d5780635e44daf3146102535780637284e4161461029e57610121565b806309eef43e146101265780631703a01814610160578063237637a81461017a5780633f2b96e6146101f7575b600080fd5b61014c6004803603602081101561013c57600080fd5b50356001600160a01b03166104b3565b604080519115158252519081900360200190f35b6101686104c8565b60408051918252519081900360200190f35b6101826104ce565b6040805160208082528351818301528351919283929083019185019080838360005b838110156101bc5781810151838201526020016101a4565b50505050905090810190601f1680156101e95780820380516001836020036101000a031916815260200191505b509250505060405180910390f35b61014c61055c565b61014c6004803603602081101561021557600080fd5b50356001600160a01b0316610565565b61018261057a565b6101686004803603602081101561024357600080fd5b50356001600160a01b03166105d5565b6102766004803603604081101561026957600080fd5b50803590602001356105e7565b604080516001600160a01b039094168452602084019290925282820152519081900360600190f35b6101826107f5565b6102ae61084f565b60408051921515835290151560208301528051918290030190f35b6102d1610906565b604080516001600160a01b039092168252519081900360200190f35b61014c6004803603604081101561030357600080fd5b506001600160a01b038135169060200135610915565b610168610ae0565b610168610b27565b610168610b2d565b6102d16004803603602081101561034757600080fd5b5035610b33565b61014c6004803603604081101561036457600080fd5b81019060208101813564010000000081111561037f57600080fd5b82018360208201111561039157600080fd5b803590602001918460208302840111640100000000831117156103b357600080fd5b919080806020026020016040519081016040528093929190818152602001838360200280828437600092019190915250929594936020810193503591505064010000000081111561040357600080fd5b82018360208201111561041557600080fd5b8035906020019184602083028401116401000000008311171561043757600080fd5b919080806020026020016040519081016040528093929190818152602001838360200280828437600092019190915250929550610b5a945050505050565b610168610c4d565b61049a6004803603602081101561049357600080fd5b5035610c53565b6040805192835260208301919091528051918290030190f35b60076020526000908152604090205460ff1681565b60035481565b6006805460408051602060026001851615610100026000190190941693909304601f810184900484028201840190925281815292918301828280156105545780601f1061052957610100808354040283529160200191610554565b820191906000526020600020905b81548152906001019060200180831161053757829003601f168201915b505050505081565b60055460ff1681565b600b6020526000908152604090205460ff1681565b6000805460408051602060026001851615610100026000190190941693909304601f810184900484028201840190925281815292918301828280156105545780601f1061052957610100808354040283529160200191610554565b600a6020526000908152604090205481565b6000806000806105f561084f565b509050801561064b576040805162461bcd60e51b815260206004820152601b60248201527f54686520706f6c6c2068617320616c726561647920656e6465642e0000000000604482015290519081900360640190fd5b600854861061068b5760405162461bcd60e51b815260040180806020018281038252602b815260200180610d7b602b913960400191505060405180910390fd5b60028512801561069c575060011985135b6106d75760405162461bcd60e51b8152600401808060200182810382526032815260200180610c7f6032913960400191505060405180910390fd5b336000908152600c602090815260408083208984529091529020541561072e5760405162461bcd60e51b8152600401808060200182810382526031815260200180610cd66031913960400191505060405180910390fd5b336000818152600c602090815260408083208a845282528083208990559282526007905220805460ff19166001179055600880548691908890811061076f57fe5b60009182526020918290206001600290920201018054909201909155604080518781529051889233927f1263a2295e53acd6ef8f655b8afc11fa0f2cf11925be7aa1757d741ef32a926c929081900390910190a33386600888815481106107d257fe5b906000526020600020906002020160010154829250935093509350509250925092565b60018054604080516020600284861615610100026000190190941693909304601f810184900484028201840190925281815292918301828280156105545780601f1061052957610100808354040283529160200191610554565b60008080805b6009548110156108b657600760006009838154811061087057fe5b60009182526020808320909101546001600160a01b0316835282019290925260400190205460ff166108a35760006108a6565b60015b60ff169190910190600101610855565b5080158015906108c7575060095481145b156108d9576001809250925050610902565b6004546108f0576003546001935011159050610902565b60045442101560035482101592509250505b9091565b6002546001600160a01b031681565b60008061092061084f565b5090508015610976576040805162461bcd60e51b815260206004820152601b60248201527f54686520706f6c6c2068617320616c726561647920656e6465642e0000000000604482015290519081900360640190fd5b60055460ff166109b75760405162461bcd60e51b815260040180806020018281038252602a815260200180610da6602a913960400191505060405180910390fd5b336000908152600b602052604090205460ff16610a055760405162461bcd60e51b8152600401808060200182810382526021815260200180610d5a6021913960400191505060405180910390fd5b336000908152600a6020526040902054831115610a535760405162461bcd60e51b8152600401808060200182810382526021815260200180610d396021913960400191505060405180910390fd5b6001600160a01b0384166000908152600b602052604090205460ff16610aaa5760405162461bcd60e51b8152600401808060200182810382526025815260200180610cb16025913960400191505060405180910390fd5b336000908152600a6020526040808220805486900390556001600160a01b03861682529020805484019055600191505092915050565b600080805b600854811015610b21578160088281548110610afd57fe5b9060005260206000209060020201600101541315610b19578091505b600101610ae5565b50905090565b60045481565b60085490565b60098181548110610b4057fe5b6000918252602090912001546001600160a01b0316905081565b600080610b6561084f565b5090508015610bbb576040805162461bcd60e51b815260206004820152601b60248201527f54686520706f6c6c2068617320616c726561647920656e6465642e0000000000604482015290519081900360640190fd5b8251845114610bfb5760405162461bcd60e51b8152600401808060200182810382526032815260200180610d076032913960400191505060405180910390fd5b60005b8451811015610c4257610c37858281518110610c1657fe5b6020026020010151858381518110610c2a57fe5b60200260200101516105e7565b505050600101610bfe565b506001949350505050565b60095490565b60088181548110610c6057fe5b6000918252602090912060029091020180546001909101549091508256fe496e636f727265637420766f746520747970652c206f6e6c79202d312c2030206f72202b312061726520616c6c6f7765642e54686520726563697069656e74206973206e6f7420616c6c6f77656420746f20766f74652e54686520766f7465722068617320616c726561647920676976656e20766f746520666f7220746869732063686f6963652e4e756d626572206f662063686f6963657320616e6420766f7465732070726f766964656420646f206e6f74206d617463682e54686520766f7465722068617320696e73756666696369656e7420766f7465732e54686520766f746572206973206e6f7420616c6c6f77656420746f20766f74652e5468657265206973206e6f20737563682063616e6469646174652077697468207468697320696e6465782e566f74652064656c65676174696f6e2069732064697361626c656420666f72207468697320706f6c6c2ea2646970667358221220bf8624119c19a5f140f30c6c02de7418e14c2c1e1edb4a443071a5bdc349f36264736f6c63430006080033a2646970667358221220a070fc6e460e2c3e5be0a83af093c9857891ebf5caf43127a540cf13e3a87ac364736f6c63430006080033",
  "immutableReferences": {},
  "source": "// SPDX-License-Identifier: MIT\r\npragma solidity >=0.4.22 <0.8.0;\r\n\r\nimport '../polls/FirstPastThePostPoll.sol';\r\nimport '../polls/CumulativePoll.sol';\r\nimport '../polls/EvaluativePoll.sol';\r\n\r\ncontract VotrPollFactory {\r\n  uint256 public numberOfPolls;\r\n  event PollCreated(address indexed owner, address indexed pollType);\r\n  enum PollType { FirstPastThePost, Cumulative, Evaluative }\r\n\r\n  function createPoll(\r\n    PollType _type,\r\n    string memory _title,\r\n    string memory _description,\r\n    bytes32[] memory _choices,\r\n    address[] memory _voters,\r\n    uint256[] memory _allowedVotes,\r\n    uint256 _quorum,\r\n    uint256 _endDate,\r\n    bool _allowVoteDelegation\r\n  ) public returns (address) {\r\n    IPoll poll;\r\n    if (_type == PollType.FirstPastThePost) {\r\n      poll = new FirstPastThePostPoll(\r\n        msg.sender,\r\n        _title,\r\n        _description,\r\n        _choices,\r\n        _voters,\r\n        _quorum,\r\n        _endDate,\r\n        _allowVoteDelegation\r\n      );\r\n    }\r\n    if (_type == PollType.Cumulative) {\r\n      poll = new CumulativePoll(\r\n        msg.sender,\r\n        _title,\r\n        _description,\r\n        _choices,\r\n        _voters,\r\n        _allowedVotes,\r\n        _quorum,\r\n        _endDate,\r\n        _allowVoteDelegation\r\n      );\r\n    }\r\n    if (_type == PollType.Evaluative) {\r\n      poll = new EvaluativePoll(msg.sender, _title, _description, _choices, _voters, _quorum, _endDate);\r\n    }\r\n\r\n    return _createPoll(msg.sender, address(poll));\r\n  }\r\n\r\n  function _createPoll(address owner, address poll) internal returns (address) {\r\n    emit PollCreated(owner, poll);\r\n    numberOfPolls++;\r\n    return poll;\r\n  }\r\n}\r\n",
  "sourcePath": "/home/mrkampla/Votr/contracts/contracts/factories/VotrPollFactory.sol",
  "compiler": {
    "name": "solc",
    "version": "0.6.8+commit.0bbfe453.Emscripten.clang"
  },
  "schemaVersion": "3.3.3",
  "updatedAt": "2021-02-23T14:57:17.712Z",
  "networkType": "ethereum",
  "devdoc": {
    "methods": {}
  },
  "userdoc": {
    "methods": {}
  }
}