{
  "contractName": "VotrSeriesFactory",
  "abi": [
    {
      "anonymous": false,
      "inputs": [
        {
          "indexed": true,
          "internalType": "address",
          "name": "owner",
          "type": "address"
        },
        {
          "indexed": true,
          "internalType": "address",
          "name": "series",
          "type": "address"
        }
      ],
      "name": "SeriesCreated",
      "type": "event"
    },
    {
      "inputs": [],
      "name": "numberOfSeries",
      "outputs": [
        {
          "internalType": "uint256",
          "name": "",
          "type": "uint256"
        }
      ],
      "stateMutability": "view",
      "type": "function",
      "constant": true
    },
    {
      "inputs": [
        {
          "internalType": "address[]",
          "name": "_voters",
          "type": "address[]"
        },
        {
          "internalType": "uint256[]",
          "name": "_allowedVotes",
          "type": "uint256[]"
        },
        {
          "internalType": "bool",
          "name": "_allowVoteDelegation",
          "type": "bool"
        }
      ],
      "name": "createSeries",
      "outputs": [
        {
          "internalType": "address",
          "name": "",
          "type": "address"
        }
      ],
      "stateMutability": "nonpayable",
      "type": "function"
    }
  ],
  "bytecode": "0x608060405234801561001057600080fd5b506123a5806100206000396000f3fe608060405234801561001057600080fd5b50600436106100365760003560e01c80638490ee441461003b578063a1dec85a14610055575b600080fd5b61004361019a565b60408051918252519081900360200190f35b61017e6004803603606081101561006b57600080fd5b81019060208101813564010000000081111561008657600080fd5b82018360208201111561009857600080fd5b803590602001918460208302840111640100000000831117156100ba57600080fd5b919080806020026020016040519081016040528093929190818152602001838360200280828437600092019190915250929594936020810193503591505064010000000081111561010a57600080fd5b82018360208201111561011c57600080fd5b8035906020019184602083028401116401000000008311171561013e57600080fd5b91908080602002602001604051908101604052809392919081815260200183836020028082843760009201919091525092955050505035151590506101a0565b604080516001600160a01b039092168252519081900360200190f35b60005481565b600080338585856040516101b3906102be565b6001600160a01b03851681528115156060820152608060208083018281528651928401929092528551604084019160a0850191888201910280838360005b838110156102095781810151838201526020016101f1565b50505050905001838103825285818151815260200191508051906020019060200280838360005b83811015610248578181015183820152602001610230565b505050509050019650505050505050604051809103906000f080158015610273573d6000803e3d6000fd5b506040519091506001600160a01b0382169033907f4445b544d1f76782d9a9650220cf6f2c17f9100a9acf6175d568a4c35666fe8e90600090a3600080546001019055949350505050565b6120a4806102cc8339019056fe60806040523480156200001157600080fd5b50604051620020a4380380620020a4833981810160405260808110156200003757600080fd5b8151602083018051604051929492938301929190846401000000008211156200005f57600080fd5b9083019060208201858111156200007557600080fd5b82518660208202830111640100000000821117156200009357600080fd5b82525081516020918201928201910280838360005b83811015620000c2578181015183820152602001620000a8565b5050505090500160405260200180516040519392919084640100000000821115620000ec57600080fd5b9083019060208201858111156200010257600080fd5b82518660208202830111640100000000821117156200012057600080fd5b82525081516020918201928201910280838360005b838110156200014f57818101518382015260200162000135565b50505050919091016040525050600180546001600160a01b0319166001600160a01b03871617908190558451600160a01b90910460ff1692506200019c915060029060208601906200025f565b506005805460ff1916905560005b83518110156200025457828181518110620001c157fe5b602002602001015160036000868481518110620001da57fe5b60200260200101516001600160a01b03166001600160a01b03168152602001908152602001600020819055506001600460008684815181106200021957fe5b6020908102919091018101516001600160a01b03168252810191909152604001600020805460ff1916911515919091179055600101620001aa565b5050505050620002f3565b828054828255906000526020600020908101928215620002b7579160200282015b82811115620002b757825182546001600160a01b0319166001600160a01b0390911617825560209092019160019091019062000280565b50620002c5929150620002c9565b5090565b620002f091905b80821115620002c55780546001600160a01b0319168155600101620002d0565b90565b611da180620003036000396000f3fe60806040523480156200001157600080fd5b5060043610620000ac5760003560e01c8063c2b6b58c116200006f578063c2b6b58c146200015a578063da58c7d91462000164578063eb7980431462000184578063f4a063da146200018e578063fbf922b514620001b757620000ac565b8063244967a514620000b15780634094099a14620000cd5780634567d74c14620000eb5780638da5cb5b1462000114578063ac2f0074146200013a575b600080fd5b620000bb6200037b565b60408051918252519081900360200190f35b620000d762000381565b604080519115158252519081900360200190f35b620000d7600480360360208110156200010357600080fd5b50356001600160a01b0316620003f8565b6200011e6200040d565b604080516001600160a01b039092168252519081900360200190f35b6200011e600480360360208110156200015257600080fd5b50356200041c565b620000d762000444565b6200011e600480360360208110156200017c57600080fd5b50356200044d565b620000d76200045b565b620000bb60048036036020811015620001a657600080fd5b50356001600160a01b03166200046b565b62000379600480360360a0811015620001cf57600080fd5b810190602081018135640100000000811115620001eb57600080fd5b820183602082011115620001fe57600080fd5b803590602001918460018302840111640100000000831117156200022157600080fd5b91908080601f01602080910402602001604051908101604052809392919081815260200183838082843760009201919091525092959493602081019350359150506401000000008111156200027557600080fd5b8201836020820111156200028857600080fd5b80359060200191846001830284011164010000000083111715620002ab57600080fd5b91908080601f0160208091040260200160405190810160405280939291908181526020018383808284376000920191909152509295949360208101935035915050640100000000811115620002ff57600080fd5b8201836020820111156200031257600080fd5b803590602001918460208302840111640100000000831117156200033557600080fd5b91908080602002602001604051908101604052809392919081815260200183836020028082843760009201919091525092955050823593505050602001356200047d565b005b60005490565b6001546000906001600160a01b03163314620003e4576040805162461bcd60e51b815260206004820181905260248201527f4f6e6c79206f776e65722063616e20636c6f736520746865207365726965732e604482015290519081900360640190fd5b506005805460ff1916600190811790915590565b60046020526000908152604090205460ff1681565b6001546001600160a01b031681565b600081815481106200042a57fe5b6000918252602090912001546001600160a01b0316905081565b60055460ff1681565b600281815481106200042a57fe5b600154600160a01b900460ff1681565b60036020526000908152604090205481565b60055460ff1615620004d6576040805162461bcd60e51b815260206004820152601a60248201527f5468652073657269657320686173206265656e20656e6465642e000000000000604482015290519081900360640190fd5b80620005145760405162461bcd60e51b815260040180806020018281038252602d81526020018062001d3f602d913960400191505060405180910390fd5b60005415620006e45760008054819060001981019081106200053257fe5b600091825260208220015460408051633d9a94b160e11b815281516001600160a01b0390931694508492637b35296292600480840193919291829003018186803b1580156200058057600080fd5b505afa15801562000595573d6000803e3d6000fd5b505050506040513d6040811015620005ac57600080fd5b5051905080620005ee5760405162461bcd60e51b815260040180806020018281038252603e81526020018062001d01603e913960400191505060405180910390fd5b60005b600254811015620006e057826001600160a01b0316634fefbc34600283815481106200061957fe5b60009182526020918290200154604080516001600160e01b031960e086901b1681526001600160a01b0390921660048301525160248083019392829003018186803b1580156200066857600080fd5b505afa1580156200067d573d6000803e3d6000fd5b505050506040513d60208110156200069457600080fd5b50516002805460039160009185908110620006ab57fe5b60009182526020808320909101546001600160a01b0316835282019290925260400190208054919091039055600101620005f1565b5050505b6001546000906001600160a01b031686868660026200070262000976565b8888600160149054906101000a900460ff16604051620007229062000a31565b808a6001600160a01b03166001600160a01b0316815260200180602001806020018060200180602001806020018981526020018881526020018715151515815260200186810386528e818151815260200191508051906020019080838360005b838110156200079c57818101518382015260200162000782565b50505050905090810190601f168015620007ca5780820380516001836020036101000a031916815260200191505b5086810385528d5181528d516020918201918f019080838360005b83811015620007ff578181015183820152602001620007e5565b50505050905090810190601f1680156200082d5780820380516001836020036101000a031916815260200191505b5086810384528c5181528c51602091820191808f01910280838360005b83811015620008645781810151838201526020016200084a565b5050505090500186810383528b8181548152602001915080548015620008b457602002820191906000526020600020905b81546001600160a01b0316815260019091019060200180831162000895575b505086810382528a5181528a51602091820191808d01910280838360005b83811015620008ec578181015183820152602001620008d2565b505050509050019e505050505050505050505050505050604051809103906000f08015801562000920573d6000803e3d6000fd5b50600080546001810182559080527f290decd9548b62a8d60345a988386fc84ba6bc95484008f6362f93160ef3e5630180546001600160a01b0319166001600160a01b0392909216919091179055505050505050565b600254606090819067ffffffffffffffff811180156200099557600080fd5b50604051908082528060200260200182016040528015620009c0578160200160208202803683370190505b50905060005b60025481101562000a2b576003600060028381548110620009e357fe5b60009182526020808320909101546001600160a01b03168352820192909252604001902054825183908390811062000a1757fe5b6020908102919091010152600101620009c6565b50905090565b6112c18062000a408339019056fe60806040523480156200001157600080fd5b50604051620012c1380380620012c183398181016040526101208110156200003857600080fd5b8151602083018051604051929492938301929190846401000000008211156200006057600080fd5b9083019060208201858111156200007657600080fd5b82516401000000008111828201881017156200009157600080fd5b82525081516020918201929091019080838360005b83811015620000c0578181015183820152602001620000a6565b50505050905090810190601f168015620000ee5780820380516001836020036101000a031916815260200191505b50604052602001805160405193929190846401000000008211156200011257600080fd5b9083019060208201858111156200012857600080fd5b82516401000000008111828201881017156200014357600080fd5b82525081516020918201929091019080838360005b838110156200017257818101518382015260200162000158565b50505050905090810190601f168015620001a05780820380516001836020036101000a031916815260200191505b5060405260200180516040519392919084640100000000821115620001c457600080fd5b908301906020820185811115620001da57600080fd5b8251866020820283011164010000000082111715620001f857600080fd5b82525081516020918201928201910280838360005b83811015620002275781810151838201526020016200020d565b50505050905001604052602001805160405193929190846401000000008211156200025157600080fd5b9083019060208201858111156200026757600080fd5b82518660208202830111640100000000821117156200028557600080fd5b82525081516020918201928201910280838360005b83811015620002b45781810151838201526020016200029a565b5050505090500160405260200180516040519392919084640100000000821115620002de57600080fd5b908301906020820185811115620002f457600080fd5b82518660208202830111640100000000821117156200031257600080fd5b82525081516020918201928201910280838360005b838110156200034157818101518382015260200162000327565b505050509190910160409081526020830151908301516060909301519094509192508990508888888888888888428211620003c3576040805162461bcd60e51b815260206004820152601f60248201527f54686520656e6420646174652063616e6e6f7420626520696e20706173742e00604482015290519081900360640190fd5b8751620003d89060009060208b0190620005eb565b508651620003ee9060019060208a0190620005eb565b5084516200040490600990602088019062000670565b506004829055600280546001600160a01b0319166001600160a01b038b1617905560038390556005805460ff191682151517905560005b8651811015620004e55760008782815181106200045457fe5b60209081029190910181015160408051808201909152908152600091810182815260088054600180820183559190945291517ff3f7a9fe364faab93b216da50a3214154f22a0a2b415b23a84c8169e8b636ee3600290940293840155517ff3f7a9fe364faab93b216da50a3214154f22a0a2b415b23a84c8169e8b636ee4909201919091559190910190506200043b565b5060005b855181101562000593578481815181106200050057fe5b6020026020010151600a60008884815181106200051957fe5b60200260200101516001600160a01b03166001600160a01b03168152602001908152602001600020819055506001600b60008884815181106200055857fe5b6020908102919091018101516001600160a01b03168252810191909152604001600020805460ff1916911515919091179055600101620004e9565b505050505050505050506040518060400160405280600e81526020016d145d58591c985d1a58c81c1bdb1b60921b81525060069080519060200190620005db929190620005eb565b505050505050505050506200071d565b828054600181600116156101000203166002900490600052602060002090601f016020900481019282601f106200062e57805160ff19168380011785556200065e565b828001600101855582156200065e579182015b828111156200065e57825182559160200191906001019062000641565b506200066c929150620006d6565b5090565b828054828255906000526020600020908101928215620006c8579160200282015b82811115620006c857825182546001600160a01b0319166001600160a01b0390911617825560209092019160019091019062000691565b506200066c929150620006f6565b620006f391905b808211156200066c5760008155600101620006dd565b90565b620006f391905b808211156200066c5780546001600160a01b0319168155600101620006fd565b610b94806200072d6000396000f3fe608060405234801561001057600080fd5b50600436106101165760003560e01c80637b352962116100a2578063c24a0f8b11610071578063c24a0f8b14610316578063ce425c801461031e578063da58c7d914610326578063f596b4f014610343578063f6fd7fde1461034b57610116565b80637b3529621461029b57806387f7b975146102be578063926f7327146102e2578063ad38867e1461030e57610116565b80634567d74c116100e95780634567d74c146101f45780634a79d50c1461021a5780634fefbc34146102225780635e44daf3146102485780637284e4161461029357610116565b806309eef43e1461011b5780631703a01814610155578063237637a81461016f5780633f2b96e6146101ec575b600080fd5b6101416004803603602081101561013157600080fd5b50356001600160a01b0316610381565b604080519115158252519081900360200190f35b61015d610396565b60408051918252519081900360200190f35b61017761039c565b6040805160208082528351818301528351919283929083019185019080838360005b838110156101b1578181015183820152602001610199565b50505050905090810190601f1680156101de5780820380516001836020036101000a031916815260200191505b509250505060405180910390f35b61014161042a565b6101416004803603602081101561020a57600080fd5b50356001600160a01b0316610433565b610177610448565b61015d6004803603602081101561023857600080fd5b50356001600160a01b03166104a3565b61026b6004803603604081101561025e57600080fd5b50803590602001356104b5565b604080516001600160a01b039094168452602084019290925282820152519081900360600190f35b6101776106c4565b6102a361071e565b60408051921515835290151560208301528051918290030190f35b6102c66107d5565b604080516001600160a01b039092168252519081900360200190f35b610141600480360360408110156102f857600080fd5b506001600160a01b0381351690602001356107e4565b61015d6109b9565b61015d610a00565b61015d610a06565b6102c66004803603602081101561033c57600080fd5b5035610a0c565b61015d610a33565b6103686004803603602081101561036157600080fd5b5035610a39565b6040805192835260208301919091528051918290030190f35b60076020526000908152604090205460ff1681565b60035481565b6006805460408051602060026001851615610100026000190190941693909304601f810184900484028201840190925281815292918301828280156104225780601f106103f757610100808354040283529160200191610422565b820191906000526020600020905b81548152906001019060200180831161040557829003601f168201915b505050505081565b60055460ff1681565b600b6020526000908152604090205460ff1681565b6000805460408051602060026001851615610100026000190190941693909304601f810184900484028201840190925281815292918301828280156104225780601f106103f757610100808354040283529160200191610422565b600a6020526000908152604090205481565b6000806000806104c361071e565b5090508015610519576040805162461bcd60e51b815260206004820152601b60248201527f54686520706f6c6c2068617320616c726561647920656e6465642e0000000000604482015290519081900360640190fd5b60085486106105595760405162461bcd60e51b815260040180806020018281038252602b815260200180610b0a602b913960400191505060405180910390fd5b336000908152600a60205260409020546002860a13156105c0576040805162461bcd60e51b815260206004820152601a60248201527f496e73756666696369656e7420766f74696e6720706f7765722e000000000000604482015290519081900360640190fd5b600085136105ff5760405162461bcd60e51b815260040180806020018281038252603e815260200180610a8a603e913960400191505060405180910390fd5b336000908152600a60209081526040808320805460028a0a9003905560079091529020805460ff19166001179055600880548691908890811061063e57fe5b60009182526020918290206001600290920201018054909201909155604080518781529051889233927f1263a2295e53acd6ef8f655b8afc11fa0f2cf11925be7aa1757d741ef32a926c929081900390910190a33386600888815481106106a157fe5b906000526020600020906002020160010154829250935093509350509250925092565b60018054604080516020600284861615610100026000190190941693909304601f810184900484028201840190925281815292918301828280156104225780601f106103f757610100808354040283529160200191610422565b60008080805b60095481101561078557600760006009838154811061073f57fe5b60009182526020808320909101546001600160a01b0316835282019290925260400190205460ff16610772576000610775565b60015b60ff169190910190600101610724565b508015801590610796575060095481145b156107a85760018092509250506107d1565b6004546107bf5760035460019350111590506107d1565b60045442101560035482101592509250505b9091565b6002546001600160a01b031681565b6000806107ef61071e565b5090508015610845576040805162461bcd60e51b815260206004820152601b60248201527f54686520706f6c6c2068617320616c726561647920656e6465642e0000000000604482015290519081900360640190fd5b60055460ff166108865760405162461bcd60e51b815260040180806020018281038252602a815260200180610b35602a913960400191505060405180910390fd5b336000908152600b602052604090205460ff166108d45760405162461bcd60e51b8152600401808060200182810382526021815260200180610ae96021913960400191505060405180910390fd5b336000908152600a60205260409020546002840a11156109255760405162461bcd60e51b8152600401808060200182810382526021815260200180610ac86021913960400191505060405180910390fd5b6001600160a01b0384166000908152600b602052604090205460ff1661097c5760405162461bcd60e51b8152600401808060200182810382526025815260200180610a656025913960400191505060405180910390fd5b336000908152600a602052604080822080546002870a908190039091556001600160a01b0387168352912080549091019055600191505092915050565b600080805b6008548110156109fa5781600882815481106109d657fe5b90600052602060002090600202016001015413156109f2578091505b6001016109be565b50905090565b60045481565b60085490565b60098181548110610a1957fe5b6000918252602090912001546001600160a01b0316905081565b60095490565b60088181548110610a4657fe5b6000918252602090912060029091020180546001909101549091508256fe54686520726563697069656e74206973206e6f7420616c6c6f77656420746f20766f74652e596f752063616e6e6f742067697665206e65676174697665206e756d626572206f6620766f74657320696e20746869732074797065206f6620706f6c6c2e54686520766f7465722068617320696e73756666696369656e7420766f7465732e54686520766f746572206973206e6f7420616c6c6f77656420746f20766f74652e5468657265206973206e6f20737563682063616e6469646174652077697468207468697320696e6465782e566f74652064656c65676174696f6e2069732064697361626c656420666f72207468697320706f6c6c2ea2646970667358221220c5b5a2019cb0c189ca1b0d14047acfe41b47ce7b9efb04da0807921333082ce464736f6c634300060800334c61737420706f6c6c20696e207468652073657269657320686173206e6f742079657420656e6465642c2063616e6e6f7420616464206e6577206f6e652e51756164726174696320506f6c6c73206d75737420686176652073706563696669656420656e642074696d652ea2646970667358221220ab8c071071c1d6e2f77fa96841c58e8fcafb4ff68d0e08295271587b22ad2f3e64736f6c63430006080033a2646970667358221220e681b5498da5d7375b51c08fdec21c7421d07b082dae5b547dc47add5e7029cb64736f6c63430006080033",
  "immutableReferences": {},
  "source": "// SPDX-License-Identifier: MIT\r\npragma solidity >=0.4.22 <0.8.0;\r\n\r\nimport '../polls/QuadraticVotingSeries.sol';\r\n\r\ncontract VotrSeriesFactory {\r\n  uint256 public numberOfSeries;\r\n  event SeriesCreated(address indexed owner, address indexed series);\r\n\r\n  function createSeries(\r\n    address[] memory _voters,\r\n    uint256[] memory _allowedVotes,\r\n    bool _allowVoteDelegation\r\n  ) public returns (address) {\r\n    address newSeries = address(new QuadraticVotingSeries(msg.sender, _voters, _allowedVotes, _allowVoteDelegation));\r\n    emit SeriesCreated(msg.sender, newSeries);\r\n    numberOfSeries++;\r\n    return newSeries;\r\n  }\r\n}\r\n",
  "sourcePath": "/home/mrkampla/Votr/contracts/contracts/factories/VotrSeriesFactory.sol",
  "compiler": {
    "name": "solc",
    "version": "0.6.8+commit.0bbfe453.Emscripten.clang"
  },
  "schemaVersion": "3.3.3",
  "updatedAt": "2021-02-23T14:57:17.714Z",
  "networkType": "ethereum",
  "devdoc": {
    "methods": {}
  },
  "userdoc": {
    "methods": {}
  }
}